:103800000C94341C0C944F1C0C944F1C0C944F1CA7
:103810000C944F1C0C944F1C0C944F1C0C944F1C7C
:103820000C944F1C0C944F1C0C944F1C0C944F1C6C
:103830000C944F1C0C944F1C0C944F1C0C944F1C5C
:103840000C944F1C0C944F1C0C944F1C0C944F1C4C
:103850000C944F1C0C944F1C0C944F1C0C944F1C3C
:103860000C944F1C0C944F1C11241FBECFEFD4E0BE
:10387000DEBFCDBF11E0A0E0B1E0EEEFFEE302C09D
:1038800005900D92A230B107D9F712E0A2E0B1E0A5
:1038900001C01D92AD30B107E1F70C94231D0C94CB
:1038A000001CCF93DF93CDB7DEB724970FB6F89403
:1038B000DEBF0FBECDBF282F882309F423E010926E
:1038C0000A0280E0821708F03CC0382F2D9A198236
:1038D0001A821B821C820BC089819A81AB81BC81B8
:1038E0000196A11DB11D89839A83AB83BC83898115
:1038F0009A81AB81BC8180589E43A040B04060F368
:103900002D9819821A821B821C820BC089819A8190
:10391000AB81BC810196A11DB11D89839A83AB83C4
:10392000BC8389819A81AB81BC8180589E43A04031
:10393000B04060F3832F8F5F382F821738F2809367
:103940000A0224960FB6F894DEBF0FBECDBFDF91FA
:10395000CF910895EF92FF920F931F93EE24FF24CF
:1039600087018091C00087FD17C00894E11CF11CFD
:10397000011D111D81E0E81682E1F8068AE70807BB
:1039800080E0180770F3E0910201F09103010995BE
:103990008091C00087FFE9CF8091C600992787FDFD
:1039A00090951F910F91FF90EF900895982F80911F
:1039B000C00085FFFCCF9093C60008950E94AA1C0A
:1039C000803271F0809104018F5F80930401853013
:1039D00009F00895E0910201F0910301099508951D
:1039E00084E10E94D61C80E10E94D61C0895CF93EA
:1039F000C82F0E94AA1C803241F0809104018F5F81
:103A000080930401853081F40AC084E10E94D61CB1
:103A10008C2F0E94D61C80E10E94D61C05C0E0912C
:103A20000201F09103010995CF910895282F90E0AC
:103A300007C08091C0008823E4F78091C6009F5F93
:103A40009217B8F30895CFEFD4E0DEBFCDBF94B79F
:103A500014BE8091600088618093600010926000C5
:103A600091FF67C183E38093C4001092C50088E191
:103A70008093C10086E08093C2005098589A259A9E
:103A800083E00E94511C0E94AA1C8033B9F181334B
:103A9000C1F1803409F456C0813409F45CC0823429
:103AA00009F46EC0853409F471C0803539F181356F
:103AB00009F4E9C0823511F1853509F4C9C08635AC
:103AC00009F4C1C0843609F465C0843709F4E1C043
:103AD000853709F4C8C0863709F44AC080910401CB
:103AE0008F5F80930401853071F6E0910201F091BF
:103AF000030109950E94AA1C803349F60E94DE1C2E
:103B0000C2CF0E94AA1CC82F803241F784E10E94D4
:103B1000D61C81E40E94D61C86E50E94D61C82E554
:103B20000E94D61C8C2F0E94D61C89E40E94D61CB1
:103B300083E50E94D61C80E50E94D61C80E10E948D
:103B4000D61CA1CF0E94AA1C8638C0F20E94AA1CD3
:103B50000E94DE1C98CF0E94AA1C803809F46CC118
:103B6000813809F465C1823809F45EC1883921F0D1
:103B700080E00E94F71C87CF83E00E94F71C83CF70
:103B800084E10E94161D0E94DE1C7DCF85E00E940C
:103B9000161DF9CF0E94AA1C809309020E94AA1C3C
:103BA0008093080280910C028E7F80930C020E9409
:103BB000AA1C853429F480910C02816080930C0248
:103BC000C0E0D0E080910802909109021816190611
:103BD00078F408E011E00E94AA1CF80181938F019B
:103BE00021968091080290910902C817D90798F38D
:103BF0000E94AA1C803209F071CF80910C0280FFD4
:103C00009EC0C0E0D0E02091080230910902121657
:103C10001306B8F4E0910601F0910701A8E0B1E0C5
:103C2000F999FECFF2BDE1BD8D9180BDFA9AF99A66
:103C300031962196C217D30798F3F0930701E093CA
:103C4000060184E179CF84E00E94161D80E091CFC7
:103C50000E94AA1C809306010E94AA1C809307015F
:103C60000E94DE1C10CF0E94AA1C803209F036CFC1
:103C700084E10E94D61C8EE10E94D61C84E90E9439
:103C8000D61C86E059CF0E94DE1C88E0809360003D
:103C9000FFCF0E94AA1C809309020E94AA1C809355
:103CA00008020E94AA1C853409F4B8C080910C0255
:103CB0008E7F80930C028091060190910701880FFE
:103CC000991F90930701809306010E94AA1C8032DD
:103CD00009F0D9CE84E10E94D61CC0E0D0E020914A
:103CE0000802309109021216130608F027CFE0915E
:103CF0000601F091070180910C0280FFA1C0F999A3
:103D0000FECFF2BDE1BDF89A80B50E94D61CE091CD
:103D10000601F09107013196F0930701E093060147
:103D200020910802309109022196C217D30718F397
:103D300005CFE0910201F0910301099593CE8091A6
:103D4000070187FD67C010920B02809106019091D8
:103D50000701880F991F90930701809306018091B6
:103D6000080280FF09C08091080290910902019623
:103D70009093090280930802F894F999FECF1127D5
:103D8000E0910601F0910701C8E0D1E080910802BE
:103D900090910902103091F40091570001700130A8
:103DA000D9F303E000935700E895009157000170A4
:103DB0000130D9F301E100935700E895099019907B
:103DC0000091570001700130D9F301E000935700D2
:103DD000E8951395103498F0112700915700017061
:103DE0000130D9F305E000935700E89500915700A2
:103DF00001700130D9F301E100935700E895329644
:103E0000029709F0C7CF103011F00296E5CF1124C8
:103E100084E192CE81E080930B0297CF80910C02D7
:103E2000816080930C0251CF80E10E94F71C2BCE61
:103E300081E00E94F71C27CE82E00E94F71C23CE6F
:103E4000869580FF06C03196F0930701E093060146
:103E50006BCF84910E94D61C2091080230910902F8
:103E6000E0910601F0910701EECF1F93CF930E94DE
:103E7000AA1CC82F0E94D61C0E94AA1C182F0E94A0
:103E8000D61CC1362CF0C75511363CF0175508C06A
:103E9000C033D4F3C0531136CCF710330CF01053A9
:103EA000C295C07FC10F8C2F992787FD9095CF9128
:103EB0001F910895CF93282F992787FD9095807F94
:103EC00090709595879595958795959587959595F6
:103ED00087958A303CF0895AC22FCF70CA303CF0A7
:103EE000C95A06C0805DC22FCF70CA30CCF7C05D02
:0E3EF0000E94D61C8C2F0E94D61CCF910895E4
:023EFE00800042
:0400000300003800C1
:00000001FF
