:100000000C9463000C948B000C948B000C948B006C
:100010000C948B000C948B000C948B000C948B0034
:100020000C948B000C948B000C948B000C948B0024
:100030000C948B000C948B000C948B000C948B0014
:100040000C94E9090C948B000C94B80B0C948B0065
:100050000C948B000C948B000C948B000C948B00F4
:100060000C948B000C948B000000000024002700EF
:100070002A0000000000250028002B0000000000DE
:1000800023002600290004040404040404040202DA
:100090000202020203030303030301020408102007
:1000A0004080010204081020010204081020000012
:1000B0000007000201000003040600000000000029
:1000C00000003706010D11241FBECFEFD8E0DEBFC0
:1000D000CDBF11E0A0E0B1E0E0E6F3E202C00590A0
:1000E0000D92A039B107D9F712E0A0E9B1E001C043
:1000F0001D92AB39B107E1F710E0C6ECD0E004C0C7
:100100002297FE010E94AA11C23CD107C9F70E94A2
:10011000E2090C94AE110C9400004F925F926F9222
:100120007F928F929F92AF92BF92CF92DF92EF9287
:10013000FF920F931F93CF93DF93EC012A013B01B2
:1001400078018901CB01BA01A80197010E94BE1074
:1001500087FF5DC0C801B701A30192010E940A0F89
:100160004B015C012EA53FA548A959A90E94C210C8
:100170008E01025C1F4FF801208131814281538141
:100180000E94730F6B017C016EA77FA788AB99ABB0
:10019000C501B401F80120813181428153810E945F
:1001A000730F9B01AC016AA97BA98CA99DA90E9430
:1001B000C2106AAB7BAB8CAB9DABC701B60120E034
:1001C00030E040E85FE30E94BE1018162CF480E097
:1001D00090E0A0E8BFE30EC0C701B60120E030E028
:1001E00040E050E00E946F0F882344F480E090E0EC
:1001F000A0E0B0E08EA79FA7A8ABB9AB4AAE5BAEBC
:100200006CAE7DAEEE9688829982AA82BB82DF9127
:10021000CF911F910F91FF90EF90DF90CF90BF9003
:10022000AF909F908F907F906F905F904F900895C8
:100230006F927F928F929F92AF92BF92CF92DF92F6
:10024000EF92FF920F931F93CF93DF93EC015A012C
:100250006B0178018901CB01BA01A80197010E94C5
:10026000BE1087FF46C0C801B701A60195010E94D4
:100270000A0F3B014C012AA53BA54CA55DA50E9498
:10028000C210FE01EA5BFF4F208131814281538120
:100290000E94730F7B018C016AA77BA78CA79DA787
:1002A00020E030E040E85FE30E94BE1018162CF416
:1002B00080E090E0A0E8BFE30EC0C801B70120E0F5
:1002C00030E040E050E00E946F0F882344F480E06B
:1002D00090E0A0E0B0E08AA79BA7ACA7BDA7CE5B4B
:1002E000DF4FA992B992C992D992688279828A82A3
:1002F0009B82DF91CF911F910F91FF90EF90DF9044
:10030000CF90BF90AF909F908F907F906F90089507
:100310002F923F924F925F926F927F928F929F9215
:10032000AF92BF92CF92DF92EF92FF920F931F9303
:10033000DF93CF93CDB7DEB728970FB6F894DEBF23
:100340000FBECDBF1C012A013B0148015901CD82DE
:10035000DE82EF82F886CB01BA0120E030E040E097
:1003600050E00E946F0F882309F4B7C0C501B401A3
:1003700020E030E040E050E00E946F0F87FDADC00C
:10038000C701B60120E030E040E050E00E946F0F6E
:1003900087FDA3C0D1011C964D925D926D927C9217
:1003A0001F97F101808A918AA28AB38AC48AD58A6A
:1003B000E68AF78A65A176A187A190A50E940C1014
:1003C00020E030E04AE754E40E94730F69837A83A7
:1003D0008B839C83C501B40120E030E040E050E015
:1003E0000E946F0F882359F40F2EF0E0AF2EF0E03B
:1003F000BF2EF0E0CF2EF0E0DF2EF02D10C060E039
:1004000070E080E89FE3A50194010E94730F2981A9
:100410003A814B815C810E94C2105B016C01D10169
:1004200099968C918823E9F1C601B50120E030E06E
:1004300040E050E00E946F0F882351F1F10160818C
:1004400071818281938124813581468157810E9407
:10045000C2107B018C01C301B201A60195010E946B
:10046000C2109B01AC01C801B7010E94730F9B0130
:10047000AC01D101D2966D917D918D919C91D597D2
:100480000E94C210F10162AB73AB84AB95AB09C0A3
:1004900080E090E0A0E0B0E0F10182AB93ABA4ABD0
:1004A000B5ABD1014D925D926D927C921397F101A3
:1004B000A482B582C682D7826D817E818F81988524
:1004C00029813A814B815C810E94730FD10118967A
:1004D0006D937D938D939C931B9728960FB6F894FC
:1004E000DEBF0FBECDBFCF91DF911F910F91FF9067
:1004F000EF90DF90CF90BF90AF909F908F907F90C4
:100500006F905F904F903F902F9008950F931F939F
:10051000CF93DF93EC0188A1DE01AE5BBF4F8E016C
:100520000A5B1F4F882319F0EE8DFF8D02C0EA8D04
:10053000FB8D60817181828193812D913D914D91DF
:100540005C910E940A0FF801208131814281538120
:100550000E94730F6EAB7FAB88AF99AF8EA99FA936
:10056000A8ADB9AD8AA79BA7ACA7BDA7E88DF98DAB
:1005700060817181828193812AAD3BAD4CAD5DADCF
:100580000E940A0FFE01FE96208131814281538133
:100590000E94730F6EA77FA788AB99AB80E090E0B5
:1005A000A0E0B0E08AAB9BABACABBDABDF91CF9131
:1005B0001F910F9108950F931F93CF93DF93EC0139
:1005C0008B016115710531F089A5882319F4CE01DD
:1005D0000E94860219A6012B11F081E089A7DF9104
:1005E000CF911F910F9108952F923F924F925F925A
:1005F0006F927F928F929F92AF92BF92CF92DF9233
:10060000EF92FF920F931F93DF93CF9300D000D010
:1006100000D0CDB7DEB7865B9F4FDC011C92AA5499
:10062000B040BE83AD8399968C91882309F4C1C1F3
:100630000E94310A69837A838B839C83ED81FE81DA
:1006400081A192A1A3A1B4A1E980FA800B811C81B0
:10065000E816F9060A071B0708F4ABC1E2ACF3ACD5
:1006600004AD15ADFE96A080B180C280D380FE9708
:10067000FE83ED83008CF18DE02D6081718182819C
:100680009381A80197010E940A0FA60195010E947B
:10069000730F3B014C0120E030E040E85FE30E9433
:1006A000BE1018165CF40F2EF0E06F2EF0E07F2ED7
:1006B000F0E88F2EFFE39F2EF02D14C0C401B3018C
:1006C00020E030E040E050E00E946F0F882354F4B7
:1006D0000F2EF0E06F2EF0E07F2EF0E08F2EF0E096
:1006E0009F2EF02DAD81BE815C96ED91FC915D97C2
:1006F0006081718182819381A80197010E940A0F14
:10070000A60195010E94730F7B018C0120E030E06F
:1007100040E85FE30E94BE1018165CF40F2EF0E074
:10072000EF2EF0E0FF2EF0E80F2FFFE31F2FF02D4C
:1007300014C0C801B70120E030E040E050E00E9462
:100740006F0F882354F40F2EF0E0EF2EF0E0FF2E11
:10075000F0E00F2FF0E01F2FF02DC801B701A4012A
:1007600093010E940A0F5B016C01ED81FE81E2A4FE
:10077000F3A404A515A5C801B70120E030E040E8C6
:100780005FE30E94BE10882354F0C601B50120E04B
:1007900030E040E050E00E94BE10181634F1C8016D
:1007A000B70120E030E040E050E00E946F0F1816E3
:1007B00054F0C601B50120E030E040E050E00E9476
:1007C0006F0F87FD12C0AD81BE81D2966D917D9174
:1007D0008D919C91D597A60195010E940B0FED81FB
:1007E000FE8162AB73AB84AB95ABAD81BE819E964F
:1007F0002D903D904D905C90D19790968C919097D4
:10080000882301F15E96ED91FC915F97AE5BBF4F3F
:1008100060817181828193812D913D914D915C9197
:100820000E940A0FED81FE81EA5BFF4F208131813A
:10083000428153810E94730FED81FE8166AB77ABDD
:1008400080AF91AFAD81BE8114966D917D918D91F8
:100850009C911797D2962D913D914D915C91D59792
:100860000E94C2109B01AC01C601B5010E940B0F92
:100870007B018C01C401B301A20191010E940A0F06
:10088000ED81FE8120853185428553850E94C2100D
:100890009B01AC01C801B7010E940A0FAD81BE8166
:1008A0002D913D914D915C910E94C210ED81FE8190
:1008B00026A937A940AD51AD0E940B0F6B017C01F9
:1008C00020E030E040E050E00E946F0F88235CF4AD
:1008D0000F2EF0E0CF2EF0E0DF2EF0E0EF2EF0E074
:1008E000FF2EF02D14C0C701B60120E030E040E833
:1008F0005FE30E94BE10181654F40F2EF0E0CF2EC6
:10090000F0E0DF2EF0E8EF2EFFE3FF2EF02DAD81BB
:10091000BE819A96CD92DD92ED92FC929D97FD015B
:1009200066A677A680AA91AA028D138DEA5BFF4F77
:10093000C701B60120813181428153810E94C210DA
:10094000ED81FE81EE5BFF4F208131814281538139
:100950000E940B0FD8016D937D938D939C931397F9
:10096000ED81FE8125A136A147A150A581A192A1CB
:10097000A3A1B4A1820F931FA41FB51F81A392A3AB
:10098000A3A3B4A3E980FA800B811C818E159F0577
:10099000A007B10740F42E0D3F1D401F511F21A39A
:1009A00032A343A354A3ED81FE81E65BFF4F81E0B8
:1009B000808326960FB6F894DEBF0FBECDBFCF91D1
:1009C000DF911F910F91FF90EF90DF90CF90BF903C
:1009D000AF909F908F907F906F905F904F903F90DF
:1009E0002F9008952F923F924F925F926F927F9235
:1009F0008F929F92AF92BF92CF92DF92EF92FF922F
:100A00000F931F93DF93CF9300D000D0CDB7DEB705
:100A10004C017A8369831A013C832B8327013801B7
:100A200040E050E060E070E000E010EC2FE734E4DC
:100A30000E948D00C40140E050E060E070E000E002
:100A400010E02FE733E40E94180188EE93E0A0E065
:100A5000B0E0F40185A396A3A7A3B0A7C401B30196
:100A6000A20196018501C98CDA8CEB8CFC8C0E946A
:100A700088010E94310AF40161A372A383A394A3A5
:100A800011A6338E228E89819A81918F808F8B81DE
:100A90009C81958F848F0F900F900F900F90CF9126
:100AA000DF911F910F91FF90EF90DF90CF90BF905B
:100AB000AF909F908F907F906F905F904F903F90FE
:100AC0002F9008958F929F92AF92BF92CF92DF9214
:100AD000EF92FF920F931F93DF93CF93CDB7DEB7C3
:100AE0004C0100D000D08F859889A989BA89EDB7CB
:100AF000FEB781839283A383B483C4010E94F2046E
:100B0000F40110A20F900F900F900F90C4010E945B
:100B10008602CF91DF911F910F91FF90EF90DF90B0
:100B2000CF90BF90AF909F908F9008958EBD0DB4E1
:100B300007FEFDCF8EB50895EF92FF920F931F939E
:100B4000CF93DF93082FEB017A01122F203F79F426
:100B50008BE060E00E94FC0A8CE061E00E94FC0AED
:100B60008DE060E00E94FC0A8AE060E00EC08BE04D
:100B700061E00E94FC0A8CE060E00E94FC0A8DE0CB
:100B800061E00E94FC0A8AE061E00E94FC0AEF2812
:100B900011F450E401C050EC103F11F440E001C0EA
:100BA00040E1202F30E0C9018270907073E0880F1F
:100BB000991F7A95E1F721703070220F331F220FB1
:100BC000331F822B25E0CC0FDD1F2A95E1F78C2BFC
:100BD000212F2170822B212F30E022703070220FC4
:100BE000331F822B852B842B8CBD8DB51470812BEC
:100BF0008DBDDF91CF911F910F91FF90EF900895E0
:100C000080919001909191018230910589F083301B
:100C100091051CF4019751F506C08330910569F0E8
:100C2000049721F517C080E090E0A0EBB1E409C083
:100C300080E090E0A8ECB1E404C080E090E0A0E0A7
:100C4000B2E48093290190932A01A0932B01B093E1
:100C50002C01089580E090E0A4E1B2E480932901A2
:100C600090932A01A0932B01B0932C010895AF9289
:100C7000BF92CF92DF92EF92FF920F931F9300D01B
:100C800000D0E0902D01F0902E0100912F011091E5
:100C90003001A0903101B0903201C0903301D0906A
:100CA00034018091AC019091AD01A091AE01B09161
:100CB000AF01EDB7FEB781839283A383B48380EB4A
:100CC00091E065E271E048EA51E029E231E00E94FA
:100CD00062050F900F900F900F901F910F91FF9052
:100CE000EF90DF90CF90BF90AF9008958F929F923A
:100CF000AF92BF92CF92DF92EF92FF920F931F932A
:100D0000CF93DF93EC01823091055CF0B6E9EB2ED6
:100D1000F12C012D112DA1E0AA2EB12C88249924AB
:100D20001EC08FEFCF3FD80734F4F6E9EF2EF12C39
:100D3000012D112D09C0CE010196039758F4E2E36D
:100D4000EE2EF12C012D112DAA24BB2471E0872E4B
:100D5000912C05C066E9E62EF12C012D112D0E9483
:100D6000310A20919C0130919D0140919E0150914A
:100D70009F012E0D3F1D401F511F261737074807A3
:100D8000590708F061C06E01D7FF04C0CC24DD24F0
:100D9000CC1ADD0A82E0C816D1040CF455C00E94BA
:100DA000310A60939C0170939D0180939E01909302
:100DB0009F0120919401309195012F5F3F4F309317
:100DC000950120939401C601880F991F28173907B0
:100DD0001CF420FD2AC00EC0C6010596880F991F7D
:100DE000821793073CF4821793071CF51092950124
:100DF0001092940183E06A2D1AC021962397B8F5CA
:100E00000E94310A60939C0170939D0180939E0122
:100E100090939F01809194019091950101969093F8
:100E200095018093940180FFE5CF83E0682D0E94B7
:100E30001C0B8091900190919101892BC1F483E06A
:100E400060E00E941C0B13C00E94310A20919C019B
:100E500030919D0140919E0150919F01E20EF31E41
:100E6000041F151FE616F7060807190730F2DF9171
:100E7000CF911F910F91FF90EF90DF90CF90BF9097
:100E8000AF909F908F9008950E94310A2091980111
:100E90003091990140919A0150919B0126503F4F0A
:100EA0004F4F5F4F261737074807590780F50E94B5
:100EB000310A609398017093990180939A019093FD
:100EC0009B018091920190919301019690939301DF
:100ED00080939201089724F010929301109292014E
:100EE000E0919001F091910193E0EE0FFF1F9A9530
:100EF000E1F78091920190919301E80FF91FEE0FB5
:100F0000FF1FEB5CFE4F82E060810E941C0B089586
:100F100084E00E94690B9C0180912301909124013F
:100F200028173907C9F030932401209323018091B9
:100F3000900190919101019690939101809390017D
:100F4000059724F0109291011092900164EF71E0E6
:100F500080E090E00E943F0A84E00E94690B909339
:100F60002401809323010895CF92DF92EF92FF92A4
:100F70000F931F930E94310A2091A0013091A1018B
:100F80004091A2015091A3012C503E4F4F4F5F4F13
:100F9000261737074807590708F0B6C00E94310ADC
:100FA0006093A0017093A1018093A2019093A3018B
:100FB00088E060E00E941C0B61E070E080E090E05F
:100FC0000E943F0A80E00E949605C82E80E00E94A1
:100FD0009605082F61E070E080E090E00E943F0AF3
:100FE00088E061E00E941C0B802F90E002FF21C08E
:100FF00088E892E060E071E00E94720D4C2D50E0B4
:1010000060E070E088E892E020E130E00E94540E59
:1010100088E892E06FE071E00E94720D402F50E08E
:1010200060E070E088E892E020E130E00E94690E24
:1010300053C08C0133E0159507953A95E1F78C2D57
:1010400090E025E0880F991F2A95E1F7082B192BCE
:1010500088E892E061E171E00E94720DC80164E0ED
:1010600070E00E944411882777FD8095982F0E9498
:101070000E106B017C01C80164E070E00E94441115
:10108000AA2797FDA095BA2FBC01CD010E940E1092
:1010900020E030E040E85EE30E94C2109B01AC011A
:1010A000C701B6010E940B0F20E030E040E050E4A1
:1010B0000E940A0F9B01AC01CB01DA01809325014C
:1010C00090932601A0932701B093280188E892E02D
:1010D000A901BD010E94FF0E88E892E068E171E07D
:1010E0000E94720D6091A8017091A9018091AA01DE
:1010F0009091AB010E94DB0FAB01BC0188E892E04C
:101100002AE030E00E94690E1F910F91FF90EF904E
:10111000DF90CF900895DF92EF92FF920F931F938D
:1011200060912501709126018091270190912801FD
:101130002091290130912A0140912B0150912C01DD
:101140000E940A0F7B018C01DD2480919001909117
:101150009101892B11F0DD24D394C801B70120E05F
:1011600030E040E050E00E94BE10181614F4DD207C
:1011700061F4C801B70120E030E040E050E00E9497
:101180006F0F18165CF0DD2049F086E06FEF70E01D
:101190000E94A30A89E06FEF70E008C086E060E07B
:1011A00070E00E94A30A89E060E070E00E94A30A58
:1011B0001F910F91FF90EF90DF900895EF92FF92B3
:1011C0000F931F932AE939E949E95EE30E94C210AF
:1011D00020E030E04FE753E40E94730F9B01AC0125
:1011E0008091960190919701009739F460E070E04A
:1011F00080E89FE30E940A0F04C0019761F4CA01CE
:10120000B90120E030E84BE355E40E94C2100E948F
:10121000DB0F7B018C010E94310A2091A4013091E7
:10122000A5014091A6015091A7012E0D3F1D401F21
:10123000511F261737074807590728F50E94310A1A
:101240006093A4017093A5018093A6019093A701D8
:101250008091960190919701009751F481E090E080
:10126000909397018093960185E06FEF70E009C03D
:10127000019749F4109297011092960185E060E081
:1012800070E00E94A30A1F910F91FF90EF900895C4
:101290000E9488070E9400060E9444070E94B4072B
:1012A000609125017091260180912701909128017C
:1012B0002091290130912A0140912B0150912C015C
:1012C0000E940A0F0E94DB0FDC01CB010E94760610
:1012D00080EB91E00E94F4020E948B0880919001C3
:1012E00090919101892B61F480E090E0A0E0B0E062
:1012F0008093A8019093A901A093AA01B093AB0198
:101300006091A8017091A9018091AA019091AB010F
:101310000E94DE08089588E061E00E94FC0A88E0EF
:1013200061E00E941C0B81E060E070E040E050E072
:1013300025E00E949C0588E892E040E855E260E0E4
:1013400070E00E94F50B8AE061E00E94FC0A89E0EF
:1013500061E00E94FC0A86E061E00E94FC0A85E0F0
:1013600061E00E94FC0A83E061E00E94FC0A82E0E6
:1013700061E00E94FC0A84E060E00E94FC0A8AE0CE
:1013800060E070E00E94A30A89E060E070E00E94E3
:10139000A30A86E060E070E00E94A30A85E060E0B6
:1013A00070E00E94A30A83E060E00E941C0B82E0D0
:1013B00060E00E941C0B80EB91E061E070E00E9415
:1013C000DB0208950E94690A0E948B090E94480965
:1013D000FDCF1F920F920FB60F9211242F933F93C0
:1013E0008F939F93AF93BF938091FF0190910002E1
:1013F000A0910102B0910202309103020196A11D59
:10140000B11D232F2D5F2D3720F02D570196A11DE3
:10141000B11D209303028093FF0190930002A093DB
:101420000102B09302028091FB019091FC01A09116
:10143000FD01B091FE010196A11DB11D8093FB013C
:101440009093FC01A093FD01B093FE01BF91AF9179
:101450009F918F913F912F910F900FBE0F901F90F2
:1014600018958FB7F8942091FF01309100024091B8
:101470000102509102028FBFB901CA010895EF9293
:10148000FF920F931F937B018C018FB7F8944091CB
:10149000FF015091000260910102709102028FBF22
:1014A0002FB7F8948091FF0190910002A091010262
:1014B000B09102022FBF841B950BA60BB70BE81649
:1014C000F9060A071B0760F71F910F91FF90EF9035
:1014D0000895789484B5826084BD84B5816084BDAC
:1014E00085B5826085BD85B5816085BDEEE6F0E09D
:1014F000808181608083E1E8F0E080818260808388
:10150000808181608083E0E8F0E080818160808379
:10151000E1EBF0E0808184608083E0EBF0E08081AB
:1015200081608083EAE7F0E080818460808380814D
:1015300082608083808181608083808180688083F5
:101540001092C10008951F93CF93DF93182FEB01E2
:1015500061E00E94FC0AE12FF0E0E255FF4F849128
:10156000833051F480918000806880938000D09314
:101570008900C09388003CC0843051F48091800081
:10158000806280938000D0938B00C0938A0030C02B
:10159000813039F4209729F184B5806884BDC7BDB6
:1015A00027C0823039F42097E1F084B5806284BD91
:1015B000C8BD1EC0863041F48091B0008068809321
:1015C000B000C093B30014C0873041F48091B000E4
:1015D00080628093B000C093B4000AC0C038D105C7
:1015E0001CF4812F60E002C0812F61E00E941C0B7F
:1015F000DF91CF911F910895282F30E0C9018656C1
:101600009F4FFC0194912A573F4FF9018491882301
:1016100091F0E82FF0E0EE0FFF1FE859FF4FA59182
:10162000B491662329F48C91909589238C93089525
:101630008C91892B8C930895482F50E0CA018255D4
:101640009F4FFC012491CA0186569F4FFC01949143
:101650004A575F4FFA0134913323D1F1222331F1FC
:10166000233021F4809180008F7705C0243031F43D
:10167000809180008F7D8093800018C0213019F404
:1016800084B58F7704C0223021F484B58F7D84BD6A
:101690000DC0263021F48091B0008F7705C027302F
:1016A00029F48091B0008F7D8093B000E32FF0E0AB
:1016B000EE0FFF1FEE58FF4FA591B491662329F45A
:1016C0008C91909589238C9308958C91892B8C9380
:1016D0000895682F70E0CB0182559F4FFC01249143
:1016E000CB0186569F4FFC0144916A577F4FFB0107
:1016F0009491992319F420E030E038C0222331F18D
:10170000233021F4809180008F7705C0243031F49C
:10171000809180008F7D8093800018C0213019F463
:1017200084B58F7704C0223021F484B58F7D84BDC9
:101730000DC0263021F48091B0008F7705C027308E
:1017400029F48091B0008F7D8093B000892F90E0C4
:10175000880F991F84589F4FFC01A591B4918C91DB
:1017600020E030E0842311F021E030E0C901089549
:101770001F920F920FB60F9211242F933F934F9306
:101780005F936F937F938F939F93AF93BF93EF93E9
:10179000FF934091C600E0918402F0918502CF0151
:1017A000019660E870E00E9444119C0180918602DD
:1017B000909187022817390739F0EC5FFD4F40837D
:1017C0003093850220938402FF91EF91BF91AF91F6
:1017D0009F918F917F916F915F914F913F912F9149
:1017E0000F900FBE0F901F9018955F926F927F928F
:1017F0008F929F92AF92BF92CF92DF92EF92FF9221
:101800000F931F93CF93DF93EC013A014B014134C7
:1018100082E458078FE0680780E078070CF07FC00B
:1018200060E874E88EE190E0A40193010E947911D0
:101830002150304040405040CA01B90122E030E020
:1018400040E050E00E94791159016A01A60195011A
:10185000209530954095509594E0220F331F441FFA
:10186000551F9A95D1F760E074E284EF90E00E94F2
:101870007911CA01B9012FEF30E040E050E00E9439
:101880002511A40193010E947911C90181509F4F34
:10189000181619061CF4522E5A9403C0552453945A
:1018A000521A60E079E08DE390E0A40193010E9478
:1018B00079112150304040405040CA01B90122E026
:1018C00030E040E050E00E9479112095309540953D
:1018D000509583E0220F331F441F551F8A95D1F77F
:1018E00060E074E284EF90E00E947911CA01B901CE
:1018F0002FEF30E040E050E00E942511A401930159
:101900000E947911C90181509F4F181619061CF4C5
:10191000822F815002C081E0821B851500F5E88589
:10192000F98581E090E00A8802C0880F991F0A9427
:10193000E2F7808360E079E08DE390E0A401930119
:101940000E9479112150304040405040CA01B901F5
:1019500022E030E040E050E00E94791104C0E885C8
:10196000F98510829501EC81FD813083EE81FF8144
:101970002083EA85FB85208141E050E0CA010E8486
:1019800002C0880F991F0A94E2F7282B2083EA856A
:10199000FB852081CA010F8402C0880F991F0A9419
:1019A000E2F7282B2083EA85FB858081088802C026
:1019B000440F551F0A94E2F7842B8083DF91CF9167
:1019C0001F910F91FF90EF90DF90CF90BF90AF905D
:1019D0009F908F907F906F905F900895FC01A085FD
:1019E000B18521898C9190E0022E02C09595879552
:1019F0000A94E2F780FFF6CF0484F585E02D60833A
:101A0000089589E891E0909389028093880284E0A8
:101A100092E090938B0280938A0285EC90E0909301
:101A20008D0280938C0284EC90E090938F028093DF
:101A30008E0280EC90E0909391028093900281EC72
:101A400090E0909393028093920286EC90E09093C2
:101A500095028093940284E08093960283E08093C1
:101A6000970287E08093980285E08093990281E055
:101A700080939A0208950F931F93CF93DF938C0165
:101A8000EB0109C02196D801ED91FC910190F08104
:101A9000E02DC801099568816623A1F7DF91CF91F8
:101AA0001F910F910895EF92FF920F931F93CF9381
:101AB000DF938C017B01EA010CC0D7016D917D01A0
:101AC000D801ED91FC910190F081E02DC8010995BC
:101AD0002197209791F7DF91CF911F910F91FF9060
:101AE000EF900895DC01ED91FC910280F381E02DEF
:101AF000099508950F931F938C01DC01ED91FC91E2
:101B00000190F081E02D6DE00995D801ED91FC91F7
:101B10000190F081E02DC8016AE009951F910F91B5
:101B200008952F923F924F925F926F927F928F9281
:101B30009F92AF92BF92CF92DF92EF92FF920F935C
:101B40001F93DF93CF93CDB7DEB7A0970FB6F8946E
:101B5000DEBF0FBECDBF1C016A017B0141155105DF
:101B60006105710549F4DC01ED91FC910190F08172
:101B7000E02D60E3099554C0882499245401422E35
:101B800055246624772401E010E00C0F1D1F080D7A
:101B9000191DC701B601A30192010E945711F80156
:101BA00060830894811C911CA11CB11CC701B60163
:101BB000A30192010E945711C901DA016C017D0154
:101BC000C114D104E104F104F1F681E0E82EF12C16
:101BD000EC0EFD1EE80CF91C3E010894611C711C02
:101BE000D501C4010197A109B1096C01C818D90830
:101BF00014C0F601EE0DFF1D60816A3010F4605DC7
:101C000001C0695CD101ED91FC910190F081E02D62
:101C1000C10109950894E108F1086E147F0449F7A1
:101C2000A0960FB6F894DEBF0FBECDBFCF91DF9167
:101C30001F910F91FF90EF90DF90CF90BF90AF90EA
:101C40009F908F907F906F905F904F903F902F90DC
:101C500008952AE00E94910D0895EF92FF920F934C
:101C60001F93CF93DF93EC017A018B0177FF0FC0B5
:101C7000E881F9810190F081E02D6DE209951095E0
:101C80000095F094E094E11CF11C011D111DCE01A2
:101C9000B801A7012AE00E94910DDF91CF911F9119
:101CA0000F91FF90EF900895DC012115310541F46B
:101CB000ED91FC910190F081E02D642F099508953C
:101CC0002A30310519F40E942D0E08950E94910DBD
:101CD00008950F931F938C010E94540EC8010E9417
:101CE0007A0D1F910F9108959F92AF92BF92CF925C
:101CF000DF92EF92FF920F931F93CF93DF93EC014C
:101D00007A018B01922ECB01BA0120E030E040E055
:101D100050E00E946F0F882364F4E881F9810190FC
:101D2000F081E02DCE016DE2099517FB109517F9B2
:101D3000109520E030E040E05FE3AA240BC0CA0128
:101D4000B90120E030E040E251E40E94730F9B01B2
:101D5000AC01A394A91498F3C801B7010E940B0F1A
:101D60005B016C010E94E00F7B018C01CE01B80188
:101D7000A7010E94290E992029F0CE0161E271E0AD
:101D80000E94720DC801B7010E940C109B01AC01AA
:101D9000C601B5010E940A0F20C020E030E040E2F9
:101DA00051E40E94C2107B018C010E94DB0F5B0199
:101DB0006C01CC24B7FCC094DC2CCE01B601A5018B
:101DC0000E942D0EC601B5010E940E109B01AC01B0
:101DD000C801B7010E940A0F9A949920F1F6DF9189
:101DE000CF911F910F91FF90EF90DF90CF90BF9018
:101DF000AF909F90089522E00E94740E08950F9373
:101E00001F938C010E94FB0EC8010E947A0D1F9146
:101E10000F9108955058BB27AA270ED075C166D1DF
:101E200030F06BD120F031F49F3F11F41EF45BC110
:101E30000EF4E095E7FB51C1E92F77D180F3BA1793
:101E4000620773078407950718F071F49EF58FC138
:101E50000EF4E0950B2EBA2FA02D0B01B9019001C5
:101E60000C01CA01A0011124FF27591B99F0593F09
:101E700050F4503E68F11A16F040A22F232F342F51
:101E80004427585FF3CF469537952795A795F0409F
:101E90005395C9F77EF41F16BA0B620B730B840BB4
:101EA000BAF09150A1F0FF0FBB1F661F771F881F6C
:101EB000C2F70EC0BA0F621F731F841F48F48795C4
:101EC00077956795B795F7959E3F08F0B3CF9395B3
:101ED000880F08F09927EE0F979587950895D9D028
:101EE00008F481E008950CD00FC107D140F0FED076
:101EF00030F021F45F3F19F0F0C0511139C1F3C047
:101F000014D198F39923C9F35523B1F3951B550BBD
:101F1000BB27AA2762177307840738F09F5F5F4FBC
:101F2000220F331F441FAA1FA9F333D00E2E3AF0FD
:101F3000E0E830D091505040E695001CCAF729D017
:101F4000FE2F27D0660F771F881FBB1F2617370766
:101F50004807AB07B0E809F0BB0B802DBF01FF2796
:101F600093585F4F2AF09E3F510568F0B6C000C1FC
:101F70005F3FECF3983EDCF3869577956795B795D0
:101F8000F7959F5FC9F7880F911D9695879597F9EB
:101F90000895E1E0660F771F881FBB1F6217730764
:101FA0008407BA0720F0621B730B840BBA0BEE1F79
:101FB00088F7E095089504D06894B111D9C00895C8
:101FC000BCD088F09F5790F0B92F9927B751A0F057
:101FD000D1F0660F771F881F991F1AF0BA95C9F7BD
:101FE00012C0B13081F0C3D0B1E00895C0C0672FF6
:101FF000782F8827B85F39F0B93FCCF3869577956D
:102000006795B395D9F73EF4909580957095619555
:102010007F4F8F4F9F4F0895E89409C097FB3EF480
:1020200090958095709561957F4F8F4F9F4F992325
:10203000A9F0F92F96E9BB279395F69587957795A3
:102040006795B795F111F8CFFAF4BB0F11F460FF63
:102050001BC06F5F7F4F8F4F9F4F16C0882311F0BB
:1020600096E911C0772321F09EE8872F762F05C0CF
:10207000662371F096E8862F70E060E02AF09A956A
:10208000660F771F881FDAF7880F9695879597F95F
:102090000895990F0008550FAA0BE0E8FEEF1616F9
:1020A0001706E807F907C0F012161306E407F5074C
:1020B00098F0621B730B840B950B39F40A2661F0C0
:1020C000232B242B252B21F408950A2609F4A14063
:1020D000A6958FEF811D811D089597F99F6780E870
:1020E00070E060E008959FEF80EC089500240A946A
:1020F0001616170618060906089500240A941216E3
:102100001306140605060895092E0394000C11F415
:10211000882352F0BB0F40F4BF2B11F460FF04C0C2
:102120006F5F7F4F8F4F9F4F089557FD9058440F1B
:10213000551F59F05F3F71F04795880F97FB991F26
:1021400061F09F3F79F087950895121613061406E3
:10215000551FF2CF4695F1DF08C016161706180670
:10216000991FF1CF86957105610508940895E8944B
:10217000BB2766277727CB0197F908958ADF08F4F4
:102180008FEF08950BD0C0CFB1DF28F0B6DF18F085
:10219000952309F0A2CFA7CF1124EACFC6DFA0F381
:1021A000959FD1F3950F50E0551F629FF001729FEC
:1021B000BB27F00DB11D639FAA27F00DB11DAA1F0B
:1021C000649F6627B00DA11D661F829F2227B00D58
:1021D000A11D621F739FB00DA11D621F839FA00DE3
:1021E000611D221F749F3327A00D611D231F849F33
:1021F000600D211D822F762F6A2F11249F5750408A
:102200008AF0E1F088234AF0EE0FFF1FBB1F661F24
:10221000771F881F91505040A9F79E3F510570F0DD
:102220005CCFA6CF5F3FECF3983EDCF386957795C5
:102230006795B795F795E7959F5FC1F7FE2B880FD8
:10224000911D9695879597F90895629FD001739F88
:10225000F001829FE00DF11D649FE00DF11D929F42
:10226000F00D839FF00D749FF00D659FF00D992781
:10227000729FB00DE11DF91F639FB00DE11DF91FA5
:10228000BD01CF011124089597FB092E07260AD01E
:1022900077FD04D049D006D000201AF470956195DE
:1022A0007F4F0895F6F7909581959F4F0895A1E28D
:1022B0001A2EAA1BBB1BFD010DC0AA1FBB1FEE1FC0
:1022C000FF1FA217B307E407F50720F0A21BB30B0B
:1022D000E40BF50B661F771F881F991F1A9469F787
:1022E00060957095809590959B01AC01BD01CF01E3
:1022F000089597FB092E05260ED057FD04D0D7DF91
:102300000AD0001C38F450954095309521953F4FE8
:102310004F4F5F4F0895F6F79095809570956195B2
:102320007F4F8F4F9F4F0895AA1BBB1B51E107C0E2
:10233000AA1FBB1FA617B70710F0A61BB70B881F55
:10234000991F5A95A9F780959095BC01CD010895E4
:10235000EE0FFF1F0590F491E02D0994F894FFCF44
:102360004E6F7420636F6E6E656374656420002029
:102370000054656D703A20004865617465723A20BA
:10238000002E0001000000B8410000D041000048CC
:10239000420000204100000000000000000000009A
:1023A000000000000001000000000000000000002C
:1023B000000000000001000000010000000000001B
:1023C000000000000001000000010000000100000A
:1023D00000000000000100000001000000010000FA
:1023E000000100000000000000EE0C3B0D530D004A
:00000001FF
