:100000000C9436000C945E000C945E000C945E0020
:100010000C945E000C945E000C945E000C945E00E8
:100020000C945E000C945E000C945E000C945E00D8
:100030000C945E000C945E000C945E000C945E00C8
:100040000C942C020C945E000C94F6020C945E004E
:100050000C945E000C945E000C945E000C945E00A8
:100060000C9461000C945E0060003F0411241FBEDC
:10007000CFEFD4E0DEBFCDBF11E0A0E0B1E0E2E61B
:10008000FCE002C005900D92AC30B107D9F711E049
:10009000ACE0B1E001C01D92AE3BB107E1F710E06A
:1000A000CCE6D0E004C02297FE010E942B06C836A1
:1000B000D107C9F70E9425020C942F060C9400006A
:1000C00008951F920F920FB60F9211242F933F9312
:1000D0004F935F936F937F938F939F93AF93BF9350
:1000E000EF93FF938091B90090E0887F9070803605
:1000F000910509F4E2C081369105CCF5883291056D
:1001000009F47BC089329105B4F48031910509F47A
:100110006FC0813191053CF4009709F438C108970C
:1001200009F040C165C08831910509F466C0809727
:1001300009F038C17FC08034910509F4A3C081342F
:10014000910544F48033910509F47FC0C89709F004
:1001500029C186C08035910509F486C0883591058E
:1001600009F495C08834910509F01CC19EC08839F6
:10017000910509F404C189399105ECF4883791059A
:1001800009F49BC0893791054CF48836910509F430
:1001900094C08037910509F005C18FC0883891055A
:1001A00009F4EDC08039910509F48DC080389105BE
:1001B00009F0F8C088C0803B910509F4B2C0813BCA
:1001C00091054CF4803A910509F491C0883A910563
:1001D00009F0E8C0A6C0803C910509F4D4C0883C71
:1001E000910509F4D0C0883B910509F0DBC0B1C08E
:1001F00080910D018093BB00C0C09091140180914B
:100200001501981778F490911401E0911201F09182
:100210001301E90FF11D80818093BB009F5F9093D4
:100220001401ABC085ED8093BC008091BC0084FDBF
:10023000FCCFB6C080E280931D0185ED8093BC00A9
:100240008091BC0084FDFCCFABC080E380931D0196
:1002500085ED8093BC008091BC0084FDFCCFA0C0E4
:1002600088E380931D018FC0809114019091BB00A1
:10027000E0911201F0911301E80FF11D90838F5F5F
:1002800080931401909114018091150174C08091A4
:1002900014019091BB00E0911201F0911301E80F5D
:1002A000F11D90838F5F8093140185ED8093BC00D6
:1002B0008091BC0084FDFCCF73C083E080930C016F
:1002C00010921C015AC080911C01803208F057C066
:1002D00080911C019091BB00E0911A01F0911B01EB
:1002E000E80FF11D90838F5F80931C0146C08091C1
:1002F0001C01803248F480911C01E0911A01F091B8
:100300001B01E80FF11D108260911C01E0911001AA
:10031000F091110180911A0190911B0170E00995F3
:1003200032C084E080930C011092180110921901E0
:10033000E0910E01F0910F01099580911901882338
:1003400041F481E080931901E0911601F0911701C9
:10035000108290911801E0911601F0911701E90FB8
:10036000F11D80818093BB009F5F90931801909155
:10037000180180911901981710F485EC01C085E8E7
:100380008093BC000FC085EC8093BC0009C0109224
:100390001D0185ED8093BC008091BC0084FDFCCFE5
:1003A00010920C01FF91EF91BF91AF919F918F91AE
:1003B0007F916F915F914F913F912F910F900FBE61
:1003C0000F901F901895AF92BF92CF92DF92EF924D
:1003D000FF920F931F9381E00E94D8027C0180E07E
:1003E0000E94D8026C0182E00E94D8025C010BEAF4
:1003F00011E0C801B7010E948E05C80160E20E94A9
:10040000B004C801B6010E948E05C80160E20E94D6
:10041000B004C801B5010E94960568EE73E080E063
:1004200090E00E9474021F910F91FF90EF90DF9077
:10043000CF90BF90AF9008958BEA91E040E855E2ED
:1004400060E070E00E94330308950E949E020E94C3
:100450001C020E94E301FDCF1F920F920FB60F9274
:1004600011242F933F938F939F93AF93BF938091CA
:10047000220190912301A0912401B0912501309196
:1004800026010196A11DB11D232F2D5F2D3720F0D0
:100490002D570196A11DB11D2093260180932201A5
:1004A00090932301A0932401B093250180911E0114
:1004B00090911F01A0912001B09121010196A11DF1
:1004C000B11D80931E0190931F01A0932001B09352
:1004D0002101BF91AF919F918F913F912F910F90EB
:1004E0000FBE0F901F901895EF92FF920F931F93DE
:1004F0007B018C018FB7F894409122015091230128
:1005000060912401709125018FBF2FB7F8948091DD
:10051000220190912301A0912401B09125012FBFC8
:10052000841B950BA60BB70BE816F9060A071B07E9
:1005300060F71F910F91FF90EF900895789484B524
:10054000826084BD84B5816084BD85B5826085BDCF
:1005500085B5816085BDEEE6F0E0808181608083B5
:10056000E1E8F0E080818260808380818160808327
:10057000E0E8F0E0808181608083E1EBF0E0808161
:1005800084608083E0EBF0E0808181608083EAE733
:10059000F0E08081846080838081826080838081BC
:1005A000816080838081806880831092C10008957B
:1005B0008F70909100019295990F990F907C982BD4
:1005C00090937C0080917A00806480937A0080917F
:1005D0007A0086FDFCCF2091780040917900942F1D
:1005E00080E030E0282B392BC90108951F920F922B
:1005F0000FB60F9211242F933F934F935F936F93F6
:100600007F938F939F93AF93BF93EF93FF9340910B
:10061000C600E091A701F091A801CF01019660E822
:1006200070E00E94C5059C018091A9019091AA01EA
:100630002817390739F0E95DFE4F40833093A80150
:100640002093A701FF91EF91BF91AF919F918F915F
:100650007F916F915F914F913F912F910F900FBEBE
:100660000F901F9018955F926F927F928F929F923A
:10067000AF92BF92CF92DF92EF92FF920F931F93B0
:10068000CF93DF93EC013A014B01413482E45807E8
:100690008FE0680780E078070CF07FC060E874E8BE
:1006A0008EE190E0A40193010E94FA0521503040B0
:1006B00040405040CA01B90122E030E040E050E043
:1006C0000E94FA0559016A01A6019501209530950D
:1006D0004095509594E0220F331F441F551F9A9563
:1006E000D1F760E074E284EF90E00E94FA05CA015D
:1006F000B9012FEF30E040E050E00E94A605A401D0
:1007000093010E94FA05C90181509F4F18161906DE
:100710001CF4522E5A9403C055245394521A60E08C
:1007200079E08DE390E0A40193010E94FA05215045
:10073000304040405040CA01B90122E030E040E082
:1007400050E00E94FA05209530954095509583E041
:10075000220F331F441F551F8A95D1F760E074E2C2
:1007600084EF90E00E94FA05CA01B9012FEF30E052
:1007700040E050E00E94A605A40193010E94FA0502
:10078000C90181509F4F181619061CF4822F815001
:1007900002C081E0821B851500F5E885F98581E0BE
:1007A00090E00A8802C0880F991F0A94E2F78083BC
:1007B00060E079E08DE390E0A40193010E94FA05E6
:1007C0002150304040405040CA01B90122E030E0A1
:1007D00040E050E00E94FA0504C0E885F9851082E7
:1007E0009501EC81FD813083EE81FF812083EA85D4
:1007F000FB85208141E050E0CA010E8402C0880FD1
:10080000991F0A94E2F7282B2083EA85FB85208133
:10081000CA010F8402C0880F991F0A94E2F7282B9F
:100820002083EA85FB858081088802C0440F551F1C
:100830000A94E2F7842B8083DF91CF911F910F916F
:10084000FF90EF90DF90CF90BF90AF909F908F90F0
:100850007F906F905F900895FC01A085B1852189FC
:100860008C9190E0022E02C0959587950A94E2F74C
:1008700080FFF6CF0484F585E02D6083089585E040
:1008800091E09093AC018093AB0187E291E090936B
:10089000AE018093AD0185EC90E09093B001809320
:1008A000AF0184EC90E09093B2018093B10180ECB1
:1008B00090E09093B4018093B30181EC90E0909329
:1008C000B6018093B50186EC90E09093B8018093D7
:1008D000B70184E08093B90183E08093BA0187E097
:1008E0008093BB0185E08093BC0181E08093BD01D2
:1008F00008950F931F93CF93DF938C01EB0109C0F1
:100900002196D801ED91FC910190F081E02DC80174
:10091000099568816623A1F7DF91CF911F910F910F
:100920000895EF92FF920F931F93CF93DF938C0163
:100930007B01EA010CC0D7016D917D01D801ED91D9
:10094000FC910190F081E02DC80109952197209735
:1009500091F7DF91CF911F910F91FF90EF90089544
:10096000DC01ED91FC910190F081E02D0995089555
:100970000F931F938C01DC01ED91FC910190F081AC
:10098000E02D6DE00995D801ED91FC910190F08189
:10099000E02DC8016AE009951F910F9108952F92EB
:1009A0003F924F925F926F927F928F929F92AF92FF
:1009B000BF92CF92DF92EF92FF920F931F93DF933C
:1009C000CF93CDB7DEB7A0970FB6F894DEBF0FBEBA
:1009D000CDBF1C016A017B014115510561057105FF
:1009E00049F4DC01ED91FC910190F081E02D60E390
:1009F000099554C0882499245401422E5524662414
:100A0000772401E010E00C0F1D1F080D191DC70110
:100A1000B601A30192010E94D805F80160830894F1
:100A2000811C911CA11CB11CC701B601A30192013C
:100A30000E94D805C901DA016C017D01C114D104FD
:100A4000E104F104F1F681E0E82EF12CEC0EFD1E3C
:100A5000E80CF91C3E010894611C711CD501C4010D
:100A60000197A109B1096C01C818D90814C0F60191
:100A7000EE0DFF1D60816A3010F4605D01C0695C9D
:100A8000D101ED91FC910190F081E02DC10109951A
:100A90000894E108F1086E147F0449F7A0960FB698
:100AA000F894DEBF0FBECDBFCF91DF911F910F91A4
:100AB000FF90EF90DF90CF90BF90AF909F908F907E
:100AC0007F906F905F904F903F902F900895EF929E
:100AD000FF920F931F93CF93DF93EC017A018B0169
:100AE00077FF0FC0E881F9810190F081E02D6DE280
:100AF000099510950095F094E094E11CF11C011DFE
:100B0000111DCE01B801A7012AE00E94CF04DF9198
:100B1000CF911F910F91FF90EF900895AB01662741
:100B200057FD6095762F0E94670508950F931F93D8
:100B30008C01AB01662757FD6095762F0E946705F3
:100B4000C8010E94B8041F910F910895629FD001BF
:100B5000739FF001829FE00DF11D649FE00DF11D78
:100B6000929FF00D839FF00D749FF00D659FF00D27
:100B70009927729FB00DE11DF91F639FB00DE11D14
:100B8000F91FBD01CF011124089597FB092E0726F7
:100B90000AD077FD04D049D006D000201AF4709511
:100BA00061957F4F0895F6F7909581959F4F089531
:100BB000A1E21A2EAA1BBB1BFD010DC0AA1FBB1F61
:100BC000EE1FFF1FA217B307E407F50720F0A21BD3
:100BD000B30BE40BF50B661F771F881F991F1A9440
:100BE00069F760957095809590959B01AC01BD016A
:100BF000CF01089597FB092E05260ED057FD04D08E
:100C0000D7DF0AD0001C38F45095409530952195D7
:100C10003F4F4F4F5F4F0895F6F790958095709531
:100C200061957F4F8F4F9F4F0895AA1BBB1B51E1CA
:100C300007C0AA1FBB1FA617B70710F0A61BB70B4C
:100C4000881F991F5A95A9F780959095BC01CD01F1
:100C50000895EE0FFF1F0590F491E02D0994F8948C
:020C6000FFCFC4
:0C0C620001000000002C04790491040043
:00000001FF
