:100000000C9463000C948B000C948B000C948B006C
:100010000C948B000C948B000C948B000C948B0034
:100020000C948B000C948B000C948B000C948B0024
:100030000C948B000C948B000C948B000C948B0014
:100040000C94A9050C948B000C946A070C948B00FB
:100050000C948B000C948B000C948B000C948B00F4
:100060000C949A020C948B000000000024002700DE
:100070002A0000000000250028002B0000000000DE
:1000800023002600290004040404040404040202DA
:100090000202020203030303030301020408102007
:1000A0004080010204081020010204081020000012
:1000B0000007000201000003040600000000000029
:1000C0000000BC01B30811241FBECFEFD4E0DEBF97
:1000D000CDBF11E0A0E0B1E0E6E7F3E102C005909A
:1000E0000D92AC33B107D9F712E0ACE3B1E001C037
:1000F0001D92A530B107E1F710E0C6ECD0E004C0D6
:100100002297FE010E94B509C23CD107C9F70E949F
:10011000A2050C94B9090C9400000F931F93CF9380
:10012000DF93689F8001699F100D789F100D112447
:10013000C8010E94A900EC01009729F060E070E07E
:10014000A8010E94AB01CE01DF91CF911F910F91C9
:100150000895CF93DF93BC018230910510F462E0E3
:1001600070E0A0910302B0910402ED01E0E0F0E044
:1001700040E050E021C0888199818617970769F493
:100180008A819B81309719F09383828304C0909376
:10019000040280930302FE0134C06817790738F423
:1001A0004115510519F08417950708F4AC01FE01BB
:1001B0008A819B819C01E9012097E9F6411551054F
:1001C000A9F1CA01861B970B049708F4BA01E0E075
:1001D000F0E02AC08D919C91119784179507F9F44E
:1001E0006417750781F412968D919C91139730973F
:1001F00019F09383828304C09093040280930302D6
:10020000FD0132964CC0CA01861B970BFD01E80F19
:10021000F91F6193719302978D939C9340C0FD01E8
:10022000828193819C01D9011097A1F680910102EE
:1002300090910202892B41F4809102019091030177
:1002400090930202809301024091040150910501B4
:100250004115510541F44DB75EB780910001909171
:100260000101481B590B2091010230910202CA0181
:10027000821B930B8617970780F0AB014E5F5F4F91
:100280008417950750F0420F531F5093020240937A
:100290000102F9016193719302C0E0E0F0E0CF0147
:1002A000DF91CF910895CF93DF93009709F450C069
:1002B000EC0122971B821A82A0910302B0910402E2
:1002C000109709F140E050E0AC17BD0708F1BB837F
:1002D000AA83FE0121913191E20FF31FAE17BF07F0
:1002E00079F48D919C911197280F391F2E5F3F4F04
:1002F0003983288312968D919C9113979B838A83CF
:100300004115510571F4D0930402C093030220C03B
:1003100012968D919C911397AD01009711F0DC011D
:10032000D3CFFA01D383C28321913191E20FF31F1E
:10033000CE17DF0769F488819981280F391F2E5F56
:100340003F4FFA01318320838A819B81938382838B
:10035000DF91CF910895DC0101C06D934150504071
:10036000E0F7089581E08093450160934001109289
:1003700043011092440108950895DF93CF930F92A3
:10038000CDB7DEB76983809145018823A9F08091BC
:1003900044018032B0F480914301E0914101F09139
:1003A0004201E80FF11D6083809143018F5F8093CC
:1003B00043018093440105C0CE01019661E00E9493
:1003C0007D020F90CF91DF910895EF92FF920F93EE
:1003D0001F93CF93DF937C01042F809145018823E5
:1003E00059F0EB0110E005C0C70169910E94BD0101
:1003F0001F5F1017C8F304C0CB01642F0E947D0259
:10040000DF91CF911F910F91FF90EF900895609130
:10041000410170914201809140014091440121E0ED
:100420000E9438021092430110924401109245013B
:10043000089580E290E061E070E00E948D0080937A
:100440003C0190933D0110923E0110923F0180E2E9
:1004500090E061E070E00E948D00809341019093F4
:10046000420110924301109244010E941C0408951D
:100470001F93582F122F413210F081E03CC0809121
:1004800047018823E1F782E0809347018FEF809353
:10049000580110924F0140935001A0914D01B0912D
:1004A0004E01FB0102C081918D938E2F861B841714
:1004B000D0F3852F90E0880F991F8093480185EE37
:1004C0008093BC00112321F0809147018230E1F339
:1004D000809158018F3F11F480E00DC08091580148
:1004E000803211F482E007C080915801803311F00E
:1004F00084E001C083E01F910895482F613210F01D
:1005000081E0089580914701843011F082E00895E0
:1005100060935401A0915101B0915201842F9C012C
:10052000F90102C081918D938E2F841B8617D0F321
:1005300080E008951F920F920FB60F9211242F930F
:100540003F934F935F936F937F938F939F93AF935B
:10055000BF93EF93FF938091B90090E0887F9070F4
:100560008036910509F4E2C081369105CCF58832D8
:10057000910509F47BC089329105B4F4803191056D
:1005800009F46FC0813191053CF4009709F438C13A
:10059000089709F040C165C08831910509F466C02B
:1005A000809709F038C17FC08034910509F4A3C059
:1005B0008134910544F48033910509F47FC0C897D4
:1005C00009F029C186C08035910509F486C08835B7
:1005D000910509F495C08834910509F01CC19EC0AD
:1005E0008839910509F404C189399105ECF48837FB
:1005F000910509F49BC0893791054CF48836910523
:1006000009F494C08037910509F005C18FC088387E
:10061000910509F4EDC08039910509F48DC0803849
:10062000910509F0F8C088C0803B910509F4B2C07B
:10063000813B91054CF4803A910509F491C0883AC8
:10064000910509F0E8C0A6C0803C910509F4D4C02A
:10065000883C910509F4D0C0883B910509F0DBC0C6
:10066000B1C0809148018093BB00C0C090914F0100
:1006700080915001981778F490914F01E0914D01CD
:10068000F0914E01E90FF11D80818093BB009F5FC7
:1006900090934F01ABC085ED8093BC008091BC006E
:1006A00084FDFCCFB6C080E28093580185ED809335
:1006B000BC008091BC0084FDFCCFABC080E3809384
:1006C000580185ED8093BC008091BC0084FDFCCF77
:1006D000A0C088E3809358018FC080914F01909112
:1006E000BB00E0914D01F0914E01E80FF11D9083A8
:1006F0008F5F80934F0190914F018091500174C0A2
:1007000080914F019091BB00E0914D01F0914E011D
:10071000E80FF11D90838F5F80934F0185ED8093EB
:10072000BC008091BC0084FDFCCF73C083E080934B
:100730004701109257015AC080915701803208F04A
:1007400057C0809157019091BB00E0915501F09105
:100750005601E80FF11D90838F5F8093570146C0CB
:1007600080915701803248F480915701E091550102
:10077000F0915601E80FF11D108260915701E09150
:100780004B01F0914C01809155019091560170E020
:10079000099532C084E08093470110925301109272
:1007A0005401E0914901F0914A0109958091540169
:1007B000882341F481E080935401E0915101F0914C
:1007C0005201108290915301E0915101F091520138
:1007D000E90FF11D80818093BB009F5F90935301CF
:1007E0009091530180915401981710F485EC01C049
:1007F00085E88093BC000FC085EC8093BC0009C0E5
:100800001092580185ED8093BC008091BC0084FD5E
:10081000FCCF10924701FF91EF91BF91AF919F9153
:100820008F917F916F915F914F913F912F910F9099
:100830000FBE0F901F90189510924701449A459A49
:10084000E9EBF0E080818E7F808380818D7F8083E3
:1008500088E48093B80085E48093BC0080E290E057
:1008600061E070E00E948D0080934D0190934E01F5
:1008700080E290E061E070E00E948D008093510181
:100880009093520180E290E061E070E00E948D0060
:10089000809355019093560108950F931F93CF9322
:1008A000DF93809108010E941B078C0180910A014F
:1008B0000E941B07EC0180910E016C2F0E94CE0656
:1008C00086E491E060E070E00E94B20186E491E08D
:1008D0006CE571E045E00E94E50186E491E00E944C
:1008E00007028091060161E00E94CE0680915901C5
:1008F000809319018F5F80931A01825080931E01AB
:100900008D5F80931F01825080932A0180915B014B
:1009100080932B0186E491E060E070E00E94B201D8
:1009200086E491E067E271E045E00E94E50186E43B
:1009300091E00E9407028091060160E00E94CE06CD
:1009400086E491E060E070E00E94B20186E491E00C
:1009500062E271E045E00E94E50186E491E00E94D8
:100960000702C130D10519F069E070E002C06CE007
:1009700070E020915A012F5F20935A01822F90E05E
:100980000E944F09892B01F5809159010130110511
:1009900011F48F5F01C08150809359019091100133
:1009A00080915901981718F481E080935901809142
:1009B0005901882311F490935901219729F48091CA
:1009C0005B018F5F80935B01822F68EC0E9443097B
:1009D000992319F481E080935A016091100180E01D
:1009E00090E070E00E944F0985E00E9455066091FA
:1009F000100180E090E070E00E944F0986E00E94C4
:100A000055066091100180E090E070E00E944F096F
:100A100089E00E9455066091100180E090E070E04E
:100A20000E944F098AE00E9455066091100180E003
:100A300090E070E00E944F098BE00E945506DF9124
:100A4000CF911F910F9108950F931F9389E0809389
:100A5000810080910C0161E00E94AE068091080146
:100A600060E00E94AE0680910E0161E00E94AE0639
:100A700080910A0160E00E94AE0685E061E00E947C
:100A8000AE0686E061E00E94AE0689E061E00E9469
:100A9000AE068AE061E00E94AE068BE061E00E9453
:100AA000AE0606E411E0C8010E9419028091060119
:100AB00061E00E94AE068EEE91E040E855E260E013
:100AC00070E00E94A707C80160E070E00E94B201D8
:100AD000C80161E171E042E00E94E501C8010E94A5
:100AE000070260ED77E080E090E00E94F105C80128
:100AF00060E070E00E94B201C80163E171E045E08E
:100B00000E94E501C8010E94070260ED77E080E0E5
:100B100090E00E94F105C80160E070E00E94B2011F
:100B2000C8016CE271E045E00E94E501C8010E9445
:100B3000070260ED77E080E090E00E94F1051F91F0
:100B40000F9108950E941B060E9424050E944D04E7
:100B5000FDCF1F920F920FB60F9211242F933F9348
:100B60008F939F93AF93BF9380916501909166019E
:100B7000A0916701B0916801309169010196A11DB2
:100B8000B11D232F2D5F2D3720F02D570196A11D6C
:100B9000B11D209369018093650190936601A09334
:100BA0006701B09368018091610190916201A09109
:100BB0006301B09164010196A11DB11D8093610193
:100BC00090936201A0936301B0936401BF91AF91D0
:100BD0009F918F913F912F910F900FBE0F901F907B
:100BE0001895EF92FF920F931F937B018C018FB7A3
:100BF000F894409165015091660160916701709190
:100C000068018FBF2FB7F8948091650190916601BC
:100C1000A0916701B09168012FBF841B950BA60BB3
:100C2000B70BE816F9060A071B0760F71F910F912B
:100C3000FF90EF900895789484B5826084BD84B568
:100C4000816084BD85B5826085BD85B5816085BDC7
:100C5000EEE6F0E0808181608083E1E8F0E0808171
:100C600082608083808181608083E0E8F0E0808121
:100C700081608083E1EBF0E0808184608083E0EB41
:100C8000F0E0808181608083EAE7F0E08081846029
:100C90008083808182608083808181608083808185
:100CA000806880831092C10008951F93CF93DF93D3
:100CB000182FEB0161E00E94AE06E12FF0E0E25553
:100CC000FF4F8491833051F480918000806880933D
:100CD0008000D0938900C09388003CC0843051F4D8
:100CE00080918000806280938000D0938B00C093BD
:100CF0008A0030C0813039F4209729F184B58068AA
:100D000084BDC7BD27C0823039F42097E1F084B597
:100D1000806284BDC8BD1EC0863041F48091B000A1
:100D200080688093B000C093B30014C0873041F452
:100D30008091B00080628093B000C093B4000AC07C
:100D4000C038D1051CF4812F60E002C0812F61E022
:100D50000E94CE06DF91CF911F910895282F30E099
:100D6000C90186569F4FFC0194912A573F4FF901C4
:100D70008491882391F0E82FF0E0EE0FFF1FE859EF
:100D8000FF4FA591B491662329F48C919095892306
:100D90008C9308958C91892B8C930895482F50E063
:100DA000CA0182559F4FFC012491CA0186569F4F6C
:100DB000FC0194914A575F4FFA0134913323D1F1EA
:100DC000222331F1233021F4809180008F7705C0F8
:100DD000243031F4809180008F7D8093800018C092
:100DE000213019F484B58F7704C0223021F484B502
:100DF0008F7D84BD0DC0263021F48091B0008F77A7
:100E000005C0273029F48091B0008F7D8093B00019
:100E1000E32FF0E0EE0FFF1FEE58FF4FA591B491C6
:100E2000662329F48C91909589238C9308958C9155
:100E3000892B8C930895682F70E0CB0182559F4FCA
:100E4000FC012491CB0186569F4FFC0144916A57C7
:100E50007F4FFB019491992319F420E030E038C0D2
:100E6000222331F1233021F4809180008F7705C057
:100E7000243031F4809180008F7D8093800018C0F1
:100E8000213019F484B58F7704C0223021F484B561
:100E90008F7D84BD0DC0263021F48091B0008F7706
:100EA00005C0273029F48091B0008F7D8093B00079
:100EB000892F90E0880F991F84589F4FFC01A591BE
:100EC000B4918C9120E030E0842311F021E030E0F7
:100ED000C90108951F920F920FB60F9211242F93FC
:100EE0003F934F935F936F937F938F939F93AF93B2
:100EF000BF93EF93FF934091C600E091EA01F09118
:100F0000EB01CF01019660E870E00E944F099C015F
:100F10008091EC019091ED012817390739F0E659DD
:100F2000FE4F40833093EB012093EA01FF91EF9154
:100F3000BF91AF919F918F917F916F915F914F91F1
:100F40003F912F910F900FBE0F901F9018955F92B9
:100F50006F927F928F929F92AF92BF92CF92DF92C9
:100F6000EF92FF920F931F93CF93DF93EC013A011F
:100F70004B01413482E458078FE0680780E078072E
:100F80000CF07FC060E874E88EE190E0A40193016A
:100F90000E9484092150304040405040CA01B901AC
:100FA00022E030E040E050E00E94840959016A01EB
:100FB000A6019501209530954095509594E0220F1B
:100FC000331F441F551F9A95D1F760E074E284EFF8
:100FD00090E00E948409CA01B9012FEF30E040E09F
:100FE00050E00E942409A40193010E948409C901D0
:100FF00081509F4F181619061CF4522E5A9403C0A4
:1010000055245394521A60E079E08DE390E0A401F6
:1010100093010E9484092150304040405040CA0151
:10102000B90122E030E040E050E00E9484092095C0
:1010300030954095509583E0220F331F441F551F74
:101040008A95D1F760E074E284EF90E00E94840911
:10105000CA01B9012FEF30E040E050E00E942409BE
:10106000A40193010E948409C90181509F4F181661
:1010700019061CF4822F815002C081E0821B851565
:1010800000F5E885F98581E090E00A8802C0880FC4
:10109000991F0A94E2F7808360E079E08DE390E0A5
:1010A000A40193010E9484092150304040405040E7
:1010B000CA01B90122E030E040E050E00E9484091A
:1010C00004C0E885F98510829501EC81FD813083AB
:1010D000EE81FF812083EA85FB85208141E050E09D
:1010E000CA010E8402C0880F991F0A94E2F7282BC8
:1010F0002083EA85FB852081CA010F8402C0880F06
:10110000991F0A94E2F7282B2083EA85FB858081CA
:10111000088802C0440F551F0A94E2F7842B80838D
:10112000DF91CF911F910F91FF90EF90DF90CF90C3
:10113000BF90AF909F908F907F906F905F90089539
:10114000FC01A085B18521898C9190E0022E02C01E
:10115000959587950A94E2F780FFF6CF0484F5858C
:10116000E02D6083089585E391E09093EF018093F3
:10117000EE018AE691E09093F1018093F00185EC15
:1011800090E09093F3018093F20184EC90E09093CF
:10119000F5018093F40180EC90E09093F701809347
:1011A000F60181EC90E09093F9018093F80186ECD0
:1011B00090E09093FB018093FA0184E08093FC011E
:1011C00083E08093FD0187E08093FE0185E08093BA
:1011D000FF0181E08093000208950F931F93CF9346
:1011E000DF938C01EB0109C02196D801ED91FC91B0
:1011F0000190F081E02DC801099568816623A1F76F
:10120000DF91CF911F910F910895EF92FF920F936D
:101210001F93CF93DF938C017B01EA010CC0D701B0
:101220006D917D01D801ED91FC910190F081E02D4F
:10123000C80109952197209791F7DF91CF911F91D0
:101240000F91FF90EF900895629FD001739FF0017E
:10125000829FE00DF11D649FE00DF11D929FF00D46
:10126000839FF00D749FF00D659FF00D9927729F7D
:10127000B00DE11DF91F639FB00DE11DF91FBD0108
:10128000CF0111240895991B79E004C0991F961786
:1012900008F0961B881F7A95C9F78095089597FBEB
:1012A000092E07260AD077FD04D049D006D00020A9
:1012B0001AF4709561957F4F0895F6F79095819592
:1012C0009F4F0895A1E21A2EAA1BBB1BFD010DC062
:1012D000AA1FBB1FEE1FFF1FA217B307E407F507E6
:1012E00020F0A21BB30BE40BF50B661F771F881FC2
:1012F000991F1A9469F760957095809590959B0158
:10130000AC01BD01CF01089597FB092E05260ED033
:1013100057FD04D0D7DF0AD0001C38F45095409513
:10132000309521953F4F4F4F5F4F0895F6F79095B9
:101330008095709561957F4F8F4F9F4F0895AA1BA1
:10134000BB1B51E107C0AA1FBB1FA617B70710F0B0
:10135000A61BB70B881F991F5A95A9F780959095E2
:10136000BC01CD010895EE0FFF1F0590F491E02D13
:061370000994F894FFCF80
:101376002000050200000D00020003000500040025
:1013860060000108030000000300020000030002E1
:10139600020001000000002E0404030705010700F7
:0C13A6000000000000A008ED0805090090
:00000001FF
