:103800000C94341C0C944F1C0C944F1C0C944F1CA7
:103810000C944F1C0C944F1C0C944F1C0C944F1C7C
:103820000C944F1C0C944F1C0C944F1C0C944F1C6C
:103830000C944F1C0C944F1C0C944F1C0C944F1C5C
:103840000C944F1C0C944F1C0C944F1C0C944F1C4C
:103850000C944F1C0C944F1C0C944F1C0C944F1C3C
:103860000C944F1C0C944F1C11241FBECFEFD4E0BE
:10387000DEBFCDBF11E0A0E0B1E0EAE2FEE302C0AE
:1038800005900D92A230B107D9F712E0A2E0B1E0A5
:1038900001C01D92AC30B107E1F70C94D61C0C941A
:1038A000001C882309F483E01092090290E0981725
:1038B000F0F4692F2D9A2FEF37E448EE51E02253B0
:1038C00030404040504057FFFACF2D982FEF33ED56
:1038D00040E350E0225330404040504057FFFACF81
:1038E000962F9F5F692F981728F3909309020895E8
:1038F000EF92FF920F931F93EE24FF248701809194
:10390000C00087FD17C00894E11CF11C011D111DAA
:1039100081E0E81682E1F8068AE7080780E01807E8
:1039200070F3E0910201F091030109958091C000CC
:1039300087FFE9CF8091C600992787FD90951F9159
:103940000F91FF90EF900895982F8091C00085FF10
:10395000FCCF9093C60008950E94781C803209F035
:10396000089584E10E94A41C80E10E94A41C089593
:10397000CF93C82F0E94781C803249F484E10E94C2
:10398000A41C8C2F0E94A41C80E10E94A41CCF9137
:103990000895282F90E007C08091C0008823E4F7A5
:1039A0008091C6009F5F9217B8F30895CFEFD4E0DF
:1039B000DEBFCDBF000056985E9A83E38093C400BB
:1039C0001092C50088E18093C10086E08093C20018
:1039D000259A83E00E94511C0E94781C803361F17B
:1039E000813369F1803409F44BC0813409F451C04A
:1039F000823409F460C0853409F463C08035E1F095
:103A00008135D1F08235C1F0853509F45EC0863547
:103A100009F466C0843609F468C0843709F4BAC072
:103A2000853709F415C18637B9F680E00E94B81CC5
:103A30000E94781C8033A1F60E94AC1CCDCF0E945E
:103A4000781CC82F803241F684E10E94A41C81E4D6
:103A50000E94A41C86E50E94A41C82E50E94A41C6E
:103A60008C2F0E94A41C89E40E94A41C83E50E9460
:103A7000A41C80E50E94A41C80E10E94A41CACCF81
:103A80000E94781C8638C0F20E94781C0E94AC1CF0
:103A9000A3CF0E94781C803809F465C1813809F4ED
:103AA00066C1823809F467C1883909F0BECF83E066
:103AB0000E94B81CBDCF84E10E94C91C0E94AC1CAE
:103AC0008BCF85E00E94C91CF9CF0E94781C80939F
:103AD00005010E94781C809306010E94AC1C7CCFDB
:103AE00084E00E94C91C80E0A1CF0E94781C8093D2
:103AF00008020E94781C8093070280910B028E7F3F
:103B000080930B020E94781C853409F4B1C000E058
:103B100010E080910702909108021816190670F4BF
:103B2000C7E0D1E00E94781C89930F5F1F4F8091FE
:103B300007029091080208171907A0F30E94781C49
:103B4000803209F049CF80910B0280FF9DC000E0D8
:103B500010E0209107023091080212161306C0F4FB
:103B6000E0910501F0910601A7E0B1E0F999FECFDF
:103B7000F2BDE1BD8D9180BDFA9AF99A31960F5F41
:103B80001F4F0217130790F3F0930601E09305010E
:103B900084E170CF0E94781C809308020E94781CF8
:103BA000809307020E94781C853409F467C08091D5
:103BB0000B028E7F80930B0280910501909106018C
:103BC000880F991F90930601809305010E94781C2D
:103BD000803209F001CF84E10E94A41C00E010E0D3
:103BE00020910702309108021216130608F044CF04
:103BF000E0910501F091060180910B0280FF1FC04A
:103C0000F999FECFF2BDE1BDF89A80B50E94A41CDF
:103C1000E0910501F09106013196F0930601E093E1
:103C2000050120910702309108020F5F1F4F021714
:103C3000130708F021CF80910B0280FDE1CF86951C
:103C400080FF9DC03196F0930601E0930501EDCF12
:103C50000E94781C803209F0BFCE84E10E94A41C2F
:103C60008EE10E94A41C84E90E94A41C86E002CF7D
:103C700080910B02816080930B0249CF80910B02EF
:103C8000816080930B02A2CF8091060187FD67C0FF
:103C900010920A028091050190910601880F991FE8
:103CA00090930601809305018091070280FF09C06F
:103CB00080910702909108020196909308028093E8
:103CC0000702F894F999FECF1127E0910501F091D0
:103CD0000601C7E0D1E08091070290910802103000
:103CE00091F40091570001700130D9F303E0009383
:103CF0005700E8950091570001700130D9F301E1B8
:103D000000935700E89509901990009157000170B1
:103D10000130D9F301E000935700E8951395103472
:103D200098F011270091570001700130D9F305E098
:103D300000935700E8950091570001700130D9F3C6
:103D400001E100935700E8953296029709F0C7CF3A
:103D5000103011F00296E5CF112484E18BCE81E082
:103D600080930A0297CF82E00E94B81C61CE81E066
:103D70000E94B81C5DCE8FE00E94B81C59CE849181
:103D80000E94A41C2091070230910802E0910501D5
:103D9000F091060157CF1F93CF930E94781CC82F34
:103DA0000E94A41C0E94781C182F0E94A41CC136DB
:103DB0002CF0C75511363CF0175508C0C033D4F36A
:103DC000C0531136CCF710330CF01053C295C07F9E
:103DD000C10F8C2F992787FD9095CF911F91089542
:103DE000CF93282F992787FD9095807F9070959588
:103DF00087959595879595958795959587958A301B
:103E00003CF0895AC22FCF70CA303CF0C95A06C064
:103E1000805DC22FCF70CA30CCF7C05D0E94A41C59
:0A3E20008C2F0E94A41CCF9108957E
:023E2A00800016
:0400000300003800C1
:00000001FF
