:100000000C9463000C948B000C948B000C948B006C
:100010000C948B000C948B000C948B000C948B0034
:100020000C948B000C948B000C948B000C948B0024
:100030000C948B000C948B000C948B000C948B0014
:100040000C94A6080C948B000C946F0A0C948B00F3
:100050000C948B000C948B000C948B000C948B00F4
:100060000C949A020C948B000000000024002700DE
:100070002A0000000000250028002B0000000000DE
:1000800023002600290004040404040404040202DA
:100090000202020203030303030301020408102007
:1000A0004080010204081020010204081020000012
:1000B0000007000201000003040600000000000029
:1000C0000000BC01F40B11241FBECFEFD4E0DEBF53
:1000D000CDBF11E0A0E0B1E0E0EEF9E102C0059093
:1000E0000D92A834B107D9F712E0A8E4B1E001C03D
:1000F0001D92A236B107E1F710E0C6ECD0E004C0D3
:100100002297FE010E94EA0CC23CD107C9F70E9467
:100110009F080C94EE0C0C9400000F931F93CF9348
:10012000DF93689F8001699F100D789F100D112447
:10013000C8010E94A900EC01009729F060E070E07E
:10014000A8010E94AB01CE01DF91CF911F910F91C9
:100150000895CF93DF93BC018230910510F462E0E3
:1001600070E0A0916002B0916102ED01E0E0F0E08A
:1001700040E050E021C0888199818617970769F493
:100180008A819B81309719F09383828304C0909376
:10019000610280936002FE0134C06817790738F469
:1001A0004115510519F08417950708F4AC01FE01BB
:1001B0008A819B819C01E9012097E9F6411551054F
:1001C000A9F1CA01861B970B049708F4BA01E0E075
:1001D000F0E02AC08D919C91119784179507F9F44E
:1001E0006417750781F412968D919C91139730973F
:1001F00019F09383828304C090936102809360021C
:10020000FD0132964CC0CA01861B970BFD01E80F19
:10021000F91F6193719302978D939C9340C0FD01E8
:10022000828193819C01D9011097A1F680915E0291
:1002300090915F02892B41F480910201909103011A
:1002400090935F0280935E024091040150910501FA
:100250004115510541F44DB75EB780910001909171
:100260000101481B590B20915E0230915F02CA01C7
:10027000821B930B8617970780F0AB014E5F5F4F91
:100280008417950750F0420F531F50935F0240931D
:100290005E02F9016193719302C0E0E0F0E0CF01EA
:1002A000DF91CF910895CF93DF93009709F450C069
:1002B000EC0122971B821A82A0916002B091610228
:1002C000109709F140E050E0AC17BD0708F1BB837F
:1002D000AA83FE0121913191E20FF31FAE17BF07F0
:1002E00079F48D919C911197280F391F2E5F3F4F04
:1002F0003983288312968D919C9113979B838A83CF
:100300004115510571F4D0936102C093600220C081
:1003100012968D919C911397AD01009711F0DC011D
:10032000D3CFFA01D383C28321913191E20FF31F1E
:10033000CE17DF0769F488819981280F391F2E5F56
:100340003F4FFA01318320838A819B81938382838B
:10035000DF91CF910895DC0101C06D934150504071
:10036000E0F7089581E08093510160934C01109271
:100370004F011092500108950895DF93CF930F928B
:10038000CDB7DEB76983809151018823A9F08091B0
:1003900050018032B0F480914F01E0914D01F09115
:1003A0004E01E80FF11D608380914F018F5F8093B4
:1003B0004F018093500105C0CE01019661E00E947B
:1003C0007D020F90CF91DF910895EF92FF920F93EE
:1003D0001F93CF93DF937C01042F809151018823D9
:1003E00059F0EB0110E005C0C70169910E94BD0101
:1003F0001F5F1017C8F304C0CB01642F0E947D0259
:10040000DF91CF911F910F91FF90EF900895609130
:100410004D0170914E0180914C014091500121E0BD
:100420000E94380210924F01109250011092510117
:10043000089580E290E061E070E00E948D0080937A
:1004400048019093490110924A0110924B0180E2B9
:1004500090E061E070E00E948D0080934D019093E8
:100460004E0110924F01109250010E941C040895F9
:100470001F93582F122F413210F081E03CC0809121
:1004800053018823E1F782E0809353018FEF80933B
:10049000640110925B0140935C01A0915901B091FD
:1004A0005A01FB0102C081918D938E2F861B841708
:1004B000D0F3852F90E0880F991F8093540185EE2B
:1004C0008093BC00112321F0809153018230E1F32D
:1004D000809164018F3F11F480E00DC08091640130
:1004E000803211F482E007C080916401803311F002
:1004F00084E001C083E01F910895482F613210F01D
:1005000081E0089580915301843011F082E00895D4
:1005100060936001A0915D01B0915E01842F9C0108
:10052000F90102C081918D938E2F841B8617D0F321
:1005300080E008951F920F920FB60F9211242F930F
:100540003F934F935F936F937F938F939F93AF935B
:10055000BF93EF93FF938091B90090E0887F9070F4
:100560008036910509F4E2C081369105CCF58832D8
:10057000910509F47BC089329105B4F4803191056D
:1005800009F46FC0813191053CF4009709F438C13A
:10059000089709F040C165C08831910509F466C02B
:1005A000809709F038C17FC08034910509F4A3C059
:1005B0008134910544F48033910509F47FC0C897D4
:1005C00009F029C186C08035910509F486C08835B7
:1005D000910509F495C08834910509F01CC19EC0AD
:1005E0008839910509F404C189399105ECF48837FB
:1005F000910509F49BC0893791054CF48836910523
:1006000009F494C08037910509F005C18FC088387E
:10061000910509F4EDC08039910509F48DC0803849
:10062000910509F0F8C088C0803B910509F4B2C07B
:10063000813B91054CF4803A910509F491C0883AC8
:10064000910509F0E8C0A6C0803C910509F4D4C02A
:10065000883C910509F4D0C0883B910509F0DBC0C6
:10066000B1C0809154018093BB00C0C090915B01E8
:1006700080915C01981778F490915B01E0915901A9
:10068000F0915A01E90FF11D80818093BB009F5FBB
:1006900090935B01ABC085ED8093BC008091BC0062
:1006A00084FDFCCFB6C080E28093640185ED809329
:1006B000BC008091BC0084FDFCCFABC080E3809384
:1006C000640185ED8093BC008091BC0084FDFCCF6B
:1006D000A0C088E3809364018FC080915B019091FA
:1006E000BB00E0915901F0915A01E80FF11D908390
:1006F0008F5F80935B0190915B0180915C0174C07E
:1007000080915B019091BB00E0915901F0915A01F9
:10071000E80FF11D90838F5F80935B0185ED8093DF
:10072000BC008091BC0084FDFCCF73C083E080934B
:100730005301109263015AC080916301803208F026
:1007400057C0809163019091BB00E0916101F091ED
:100750006201E80FF11D90838F5F8093630146C0B3
:1007600080916301803248F480916301E0916101DE
:10077000F0916201E80FF11D108260916301E09138
:100780005701F0915801809161019091620170E0F0
:10079000099532C084E08093530110925F0110925A
:1007A0006001E0915501F091560109958091600139
:1007B000882341F481E080936001E0915D01F09134
:1007C0005E01108290915F01E0915D01F0915E0108
:1007D000E90FF11D80818093BB009F5F90935F01C3
:1007E00090915F0180916001981710F485EC01C031
:1007F00085E88093BC000FC085EC8093BC0009C0E5
:100800001092640185ED8093BC008091BC0084FD52
:10081000FCCF10925301FF91EF91BF91AF919F9147
:100820008F917F916F915F914F913F912F910F9099
:100830000FBE0F901F90189510925301449A459A3D
:10084000E9EBF0E080818E7F808380818D7F8083E3
:1008500088E48093B80085E48093BC0080E290E057
:1008600061E070E00E948D008093590190935A01DD
:1008700080E290E061E070E00E948D0080935D0175
:1008800090935E0180E290E061E070E00E948D0054
:100890008093610190936201089521E030E03093EC
:1008A0006C0120936B0130936E0120936D011092C7
:1008B000700110926F01109272011092710180ED1F
:1008C00097E09093740180937301109276011092D7
:1008D0007501109278011092770130937A0120937C
:1008E000790110927C0110927B0110927E0110928E
:1008F0007D011092800110927F0120E030E0F9012B
:10090000E757FE4FD901A559BE4F8D919C91918318
:1009100080832E5F3F4F2E31310589F70895DF9296
:10092000EF92FF920F931F938C01D62E82E5E82E53
:1009300081E0F82EC70160E070E00E94B201C701BB
:10094000B8014D2D0E94E501C7010E9407021F91C9
:100950000F91FF90EF90DF900895DF93CF9300D039
:1009600000D00F92CDB7DEB7DE011196ECE0F1E0DA
:1009700095E001900D929150E1F78B83CE010196A5
:1009800065E070E00E948F040F900F900F900F9021
:100990000F90CF91DF910895CF92DF92EF92FF9267
:1009A0000F931F93CF93DF9381E00E948B098C01FB
:1009B00080E00E948B097C0182E00E948B090E1965
:1009C0001F096801EE24D7FCE094FE2C80916B0196
:1009D00090916C01892B41F5809171019091720188
:1009E000AA2797FDA095BA2FC81AD90AEA0AFB0AC6
:1009F00020916F0130917001442737FD4095542FAD
:100A0000C701B6010E94650C20916D0130916E0105
:100A1000442737FD4095542FE1E1220F331F441F37
:100A2000551FEA95D1F734C08091770190917801F4
:100A3000AA2797FDA095BA2FC81AD90AEA0AFB0A75
:100A40002091750130917601442737FD4095542F50
:100A5000C701B6010E94650C2091730130917401A9
:100A6000442737FD4095542F620F731F841F951F35
:100A70006093AB017093AC018093AD019093AE0194
:100A80002091A7013091A8014091A9015091AA019C
:100A9000260F371F481F591F2093A7013093A80125
:100AA0004093A9015093AA018091A7019091A801B8
:100AB000A091A901B091AA012091AF013091B0019C
:100AC0004091B1015091B201E090B301F090B401B6
:100AD0000091B5011091B60182179307A407B507DD
:100AE0008CF08E0D9F1DA01FB11F821B930BA40BBA
:100AF000B50B8093A7019093A801A093A901B0938F
:100B0000AA0115C08E159F05A007B10784F4280F10
:100B1000391F4A1F5B1F2E193F09400B510B2093B1
:100B2000A7013093A8014093A9015093AA012091F5
:100B3000A7013091A8014091A9015091AA0180918B
:100B4000B701882309F47CC061E155954795379535
:100B500027956A95D1F7F22E822F90E0019766E0F3
:100B600070E00E94840C162F80917B0190917C0193
:100B7000062E02C0959587950A94E2F780FF0AC079
:100B800085E061E00E94220A6091790170917A010A
:100B900086E007C085E060E00E94220A86E060E00F
:100BA00070E00E94A90980917D0190917E01012E43
:100BB00002C0959587950A94E2F780FF07C087E009
:100BC00061E00E94220AC1E0D0E006C087E060E058
:100BD0000E94220AC0E0D0E080917F0190918001C4
:100BE00002C0959587951A95E2F780FF07C088E0C7
:100BF00061E00E94220A01E010E006C088E060E0A7
:100C00000E94220A00E010E0209721F460E0011524
:100C1000110509F061E08AE00E94220ACD2B19F447
:100C200060E0012B09F061E084E00E94220A8091DB
:100C3000BD018F1529F08F2D0E94AD04F092BD01EA
:100C40006091A7017091A8018091A9019091AA01DA
:100C500021E195958795779567952A95D1F72FEF9F
:100C600030E040E050E00E94650C6F5F70408040D3
:100C700090402FE530E040E050E00E94B90C89E060
:100C8000B9010E94A909DF91CF911F910F91FF90A7
:100C9000EF90DF90CF900895AF92BF92CF92DF9206
:100CA000EF92FF920F931F93DF93CF93CDB7DEB7F1
:100CB0002E970FB6F894DEBF0FBECDBFDE0116969D
:100CC000E6E1F1E089E001900D928150E1F7DE016B
:100CD0001196E1E1F1E085E001900D928150E1F79C
:100CE000A6E0EA2EF12CEC0EFD1E87015E010894B1
:100CF000A11CB11CFFE0CF2ED12CCC0EDD1E88E84C
:100D000093E10E944309802F8E198A83F801819113
:100D10008F018B83C50165E070E00E948F040C1584
:100D20001D0569F72E960FB6F894DEBF0FBECDBF36
:100D3000CF91DF911F910F91FF90EF90DF90CF90B7
:100D4000BF90AF900895EF92FF920F931F93DF93A0
:100D5000CF93CDB7DEB7A0970FB6F894DEBF0FBE26
:100D6000CDBF198281E08A83DE011396EFE1F1E0C5
:100D70008EE101900D928150E1F7CE01019662E083
:100D800070E00E948F0460ED77E080E090E00E94C8
:100D9000190900E010E0B3E0EB2EF12CEC0EFD1E83
:100DA000C701800F911F65E070E00E948F040B5F08
:100DB0001F4F0E311105A1F7A0960FB6F894DEBFB4
:100DC0000FBECDBFCF91DF911F910F91FF90EF909C
:100DD0000895CF92DF92EF92FF920F931F93DF93CC
:100DE000CF93CDB7DEB76D970FB6F894DEBF0FBEC9
:100DF000CDBFFE01319685E0DF011D928A95E9F7AE
:100E00008BE492E00E94B90B7C0100E010E086E0E8
:100E1000C82ED12CCC0EDD1E0AC08BE492E00E94BD
:100E2000B90BF601E00FF11F80830F5F1F4F0E1506
:100E30001F059CF39F81E88549853A856B855C8514
:100E40002D858E818E3E09F093C02E3E09F090C014
:100E5000992359F520E030E0F901E559FE4FD90119
:100E6000A757BE4F8D919C91918380832E5F3F4FFA
:100E70002E31310589F78FEF8093BD018091690193
:100E800090916A01019729F410926A011092690108
:100E900006C081E090E090936A01809369018BE045
:100EA000609169010E94220A63C0913061F4F0E010
:100EB000EE0FFF1FE757FE4F932F80E0840F911D29
:100EC0009183808355C0923041F4E9834A833B8308
:100ED0006C835D83CE0101962AC0933099F4F0E0D3
:100EE000EE0FFF1FE559FE4F808191818E839F8316
:100EF0008BE492E0BE016A5F7F4F42E050E00E94C7
:100F0000460C36C0943039F481E08093B7018FEFFE
:100F10008093BD012DC0953079F41092B70188EB14
:100F200091E065E070E00E948F0486E091E065E06A
:100F300070E00E948F041CC0963029F40E94A30622
:100F40000E944C0615C0973041F485E061E00E9494
:100F5000220A86E061E070E009C0983049F485E03B
:100F600060E00E94220A86E060E070E00E94A90929
:100F70006D960FB6F894DEBF0FBECDBFCF91DF9157
:100F80001F910F91FF90EF90DF90CF9008958BE02D
:100F900061E00E94020A86E061E00E94020A85E0A8
:100FA00061E00E94020A89E061E00E94020A8AE090
:100FB00061E00E94020A82E060E00E94020A83E08F
:100FC00060E00E94020A84E061E00E94020A87E079
:100FD00061E00E94020A88E061E00E94020A8CE05F
:100FE00061E00E94020A8DE061E00E94020A86E050
:100FF00060E00E94220A85E060E00E94220A87E009
:1010000060E00E94220A88E060E00E94220A8CE0F0
:1010100060E00E94220A8DE060E00E94220A84E0E3
:1010200060E00E94220A8AE060E00E94220A08959D
:10103000EF92FF920F931F930E94EE089B01AC0169
:101040008091650190916601A0916701B09168015E
:1010500079018A01E81AF90A0A0B1B0BD801C701AA
:10106000825E9440A040B04090F0209365013093A0
:10107000660140936701509368010E94CC048BE4A1
:1010800092E00E94A50B893010F00E94E9061F91A2
:101090000F91FF90EF90089589E0809381008BE499
:1010A00092E040E052EC61E070E00E94AC0A0E94E5
:1010B000C7070E944D0482E591E00E9419020E9438
:1010C000A3060E944C060E94EE086093650170938F
:1010D0006601809367019093680110926A011092F3
:1010E00069011092B70120E030E042E050E0209327
:1010F000B3013093B4014093B5015093B60180E041
:1011000090E0A2ECB0E08093AF019093B001A09387
:10111000B101B093B2012093A7013093A80140938D
:10112000A9015093AA011092AB011092AC01109248
:10113000AD011092AE018FEF8093BD0108950E9422
:1011400051090E944C080E941808FDCF1F920F926F
:101150000FB60F9211242F933F938F939F93AF93CA
:10116000BF938091C2019091C301A091C401B0913D
:10117000C5013091C6010196A11DB11D232F2D5F20
:101180002D3720F02D570196A11DB11D2093C601CA
:101190008093C2019093C301A093C401B093C50191
:1011A0008091BE019091BF01A091C001B091C10199
:1011B0000196A11DB11D8093BE019093BF01A09324
:1011C000C001B093C101BF91AF919F918F913F91A9
:1011D0002F910F900FBE0F901F9018956FB7F89436
:1011E00086B590E0A0E0B0E0A89B08C00097A105FC
:1011F000B10521F480E091E0A0E0B0E02091BE01D3
:101200003091BF014091C0015091C1016FBF542F77
:10121000432F322F2227280F391F4A1F5B1F82E0DE
:10122000220F331F441F551F8A95D1F7B901CA01F8
:101230000895EF92FF920F931F937B018C018FB75C
:10124000F8944091C2015091C3016091C401709122
:10125000C5018FBF2FB7F8948091C2019091C3014F
:10126000A091C401B091C5012FBF841B950BA60BA3
:10127000B70BE816F9060A071B0760F71F910F91D5
:10128000FF90EF900895019759F0FC01EE0FFF1FBA
:10129000EE0FFF1F32978FB7F8943197F1F78FBF9A
:1012A0000895789484B5826084BD84B5816084BDDE
:1012B00085B5826085BD85B5816085BDEEE6F0E0CF
:1012C000808181608083E1E8F0E0808182608083BA
:1012D000808181608083E0E8F0E0808181608083AC
:1012E000E1EBF0E0808184608083E0EBF0E08081DE
:1012F00081608083EAE7F0E0808184608083808180
:101300008260808380818160808380818068808327
:101310001092C10008958F7090910B019295990FD2
:10132000990F907C982B90937C0080917A00806438
:1013300080937A0080917A0086FDFCCF209178001E
:1013400040917900942F80E030E0282B392BC9019F
:1013500008951F93CF93DF93182FEB0161E00E9454
:10136000020AE12FF0E0E255FF4F8491833051F4FF
:1013700080918000806880938000D0938900C09322
:1013800088003CC0843051F480918000806280935A
:101390008000D0938B00C0938A0030C0813039F434
:1013A000209729F184B5806884BDC7BD27C08230ED
:1013B00039F42097E1F084B5806284BDC8BD1EC0B9
:1013C000863041F48091B00080688093B000C09373
:1013D000B30014C0873041F48091B00080628093E4
:1013E000B000C093B4000AC0C038D1051CF4812FEE
:1013F00060E002C0812F61E00E94220ADF91CF915C
:101400001F910895282F30E0C90186569F4FFC0197
:1014100094912A573F4FF9018491882391F0E82F46
:10142000F0E0EE0FFF1FE859FF4FA591B49166233E
:1014300029F48C91909589238C9308958C91892B14
:101440008C930895482F50E0CA0182559F4FFC01AC
:101450002491CA0186569F4FFC0194914A575F4FD1
:10146000FA0134913323D1F1222331F1233021F4D5
:10147000809180008F7705C0243031F48091800006
:101480008F7D8093800018C0213019F484B58F7748
:1014900004C0223021F484B58F7D84BD0DC0263078
:1014A00021F48091B0008F7705C0273029F4809116
:1014B000B0008F7D8093B000E32FF0E0EE0FFF1FB0
:1014C000EE58FF4FA591B491662329F48C91909525
:1014D00089238C9308958C91892B8C9308951F9266
:1014E0000F920FB60F9211242F933F934F935F9358
:1014F0006F937F938F939F93AF93BF93EF93FF93DC
:101500004091C600E0914702F0914802CF01019658
:1015100060E870E00E94840C9C01809149029091E7
:101520004A022817390739F0E953FE4F40833093B8
:10153000480220934702FF91EF91BF91AF919F9195
:101540008F917F916F915F914F913F912F910F906C
:101550000FBE0F901F9018955F926F927F928F929F
:101560009F92AF92BF92CF92DF92EF92FF920F9332
:101570001F93CF93DF93EC013A014B01413482E496
:1015800058078FE0680780E078070CF07FC060E8BC
:1015900074E88EE190E0A40193010E94B90C2150FF
:1015A000304040405040CA01B90122E030E040E004
:1015B00050E00E94B90C59016A01A60195012095DD
:1015C00030954095509594E0220F331F441F551FCE
:1015D0009A95D1F760E074E284EF90E00E94B90C34
:1015E000CA01B9012FEF30E040E050E00E94650CE5
:1015F000A40193010E94B90CC90181509F4F181694
:1016000019061CF4522E5A9403C055245394521AAE
:1016100060E079E08DE390E0A40193010E94B90CB1
:101620002150304040405040CA01B90122E030E032
:1016300040E050E00E94B90C2095309540955095BF
:1016400083E0220F331F441F551F8A95D1F760E0B6
:1016500074E284EF90E00E94B90CCA01B9012FEF47
:1016600030E040E050E00E94650CA40193010E942C
:10167000B90CC90181509F4F181619061CF4822F0E
:10168000815002C081E0821B851500F5E885F9854F
:1016900081E090E00A8802C0880F991F0A94E2F75F
:1016A000808360E079E08DE390E0A40193010E94E3
:1016B000B90C2150304040405040CA01B90122E0ED
:1016C00030E040E050E00E94B90C04C0E885F985A4
:1016D00010829501EC81FD813083EE81FF812083B2
:1016E000EA85FB85208141E050E0CA010E8402C0FA
:1016F000880F991F0A94E2F7282B2083EA85FB853F
:101700002081CA010F8402C0880F991F0A94E2F752
:10171000282B2083EA85FB858081088802C0440F3E
:10172000551F0A94E2F7842B8083DF91CF911F919C
:101730000F91FF90EF90DF90CF90BF90AF909F9070
:101740008F907F906F905F900895DC011296ED91DD
:10175000FC911397E058FF4F8191919180589F4FD2
:1017600020813181821B930B60E870E00E94840C21
:101770000895CF93DF93DC011296ED91FC911397BE
:10178000EF01CE57DF4F48815981E058FF4F8081EC
:101790009181E058F0408417950719F42FEF3FEF3F
:1017A0000CC0E40FF51F2081CA01019660E870E0CB
:1017B0000E94840C9983888330E0C901DF91CF9126
:1017C0000895FC01A085B18521898C9190E0022EBD
:1017D00002C0959587950A94E2F780FFF6CF0484BE
:1017E000F585E02D6083089581E491E090934C02AB
:1017F00080934B0287EC91E090934E0280934D02D0
:1018000085EC90E09093500280934F0284EC90E03E
:10181000909352028093510280EC90E09093540296
:101820008093530281EC90E090935602809355028E
:1018300086EC90E0909358028093570284E0809366
:10184000590283E080935A0287E080935B0285E02F
:1018500080935C0281E080935D0208950F931F9353
:10186000CF93DF938C01EB0109C02196D801ED9154
:10187000FC910190F081E02DC801099568816623F3
:10188000A1F7DF91CF911F910F910895EF92FF92F1
:101890000F931F93CF93DF938C017B01EA010CC060
:1018A000D7016D917D01D801ED91FC910190F081FE
:1018B000E02DC80109952197209791F7DF91CF91ED
:1018C0001F910F91FF90EF900895629FD001739F39
:1018D000F001829FE00DF11D649FE00DF11D929FCC
:1018E000F00D839FF00D749FF00D659FF00D99270B
:1018F000729FB00DE11DF91F639FB00DE11DF91F2F
:10190000BD01CF011124089597FB092E07260AD0A7
:1019100077FD04D049D006D000201AF47095619567
:101920007F4F0895F6F7909581959F4F0895A1E216
:101930001A2EAA1BBB1BFD010DC0AA1FBB1FEE1F49
:10194000FF1FA217B307E407F50720F0A21BB30B94
:10195000E40BF50B661F771F881F991F1A9469F710
:1019600060957095809590959B01AC01BD01CF016C
:10197000089597FB092E05260ED057FD04D0D7DF1A
:101980000AD0001C38F450954095309521953F4F72
:101990004F4F5F4F0895F6F790958095709561953C
:1019A0007F4F8F4F9F4F0895AA1BBB1B51E107C06C
:1019B000AA1FBB1FA617B70710F0A61BB70B881FDF
:1019C000991F5A95A9F780959095BC01CD0108956E
:1019D000EE0FFF1F0590F491E02D0994F894FFCFCE
:1019E000200062020000010000000001050001016A
:1019F000000601020000921A0507000190910708F5
:101A000001000000000000000001000000000401CF
:101A100001000005010000000502010000000000B7
:081A200000E10B2E0C460C0046
:00000001FF
