:10F800000C943E7C0C945B7C0C945B7C0C945B7C39
:10F810000C945B7C0C945B7C0C945B7C0C945B7C0C
:10F820000C945B7C0C945B7C0C945B7C0C945B7CFC
:10F830000C945B7C0C945B7C0C945B7C0C945B7CEC
:10F840000C945B7C0C945B7C0C945B7C0C945B7CDC
:10F850000C945B7C0C945B7C0C945B7C0C945B7CCC
:10F860000C945B7C0C945B7C0C945B7C0C945B7CBC
:10F870000C945B7C0C945B7C0C945B7C11241FBE11
:10F88000CFEFD0E1DEBFCDBF11E0A0E0B1E0E8EF07
:10F89000FFEF02C005900D92A230B107D9F712E038
:10F8A000A2E0B1E001C01D92AD30B107E1F70E94C6
:10F8B000437D0C94FA7F0C94007C982F9595959538
:10F8C00095959595905D8F708A307CF0282F295AF8
:10F8D0008091C00085FFFCCF9093C6008091C0004E
:10F8E00085FFFCCF2093C6000895282F205DF0CF20
:10F8F000982F8091C00085FFFCCF9093C60008959B
:10F90000EF92FF920F931F932898EE24FF24870114
:10F910008091C00087FD17C00894E11CF11C011DF7
:10F92000111D81E4E81682E4F8068FE0080780E004
:10F93000180770F3E0910401F09105010995809199
:10F94000C00087FFE9CF289A8091C6001F910F91D0
:10F95000FF90EF9008950E94807C982F8091C000C6
:10F9600085FFFCCF9093C60091362CF490330CF0B9
:10F970009053892F08959755892F08951F930E94BA
:10F98000AB7C182F0E94AB7C1295107F810F1F91CA
:10F9900008951F93182F882321F00E94807C115016
:10F9A000E1F71F9108951F93182F0E94807C8032E9
:10F9B00049F0809103018F5F809303018530C1F08E
:10F9C0001F9108958091C00085FFFCCF84E1809352
:10F9D000C6008091C00085FFFCCF1093C6008091C7
:10F9E000C00085FFFCCF80E18093C6001F91089581
:10F9F000E0910401F091050109951F9108950E947D
:10FA0000807C803241F0809103018F5F80930301FD
:10FA1000853081F008958091C00085FFFCCF84E19E
:10FA20008093C6008091C00085FFFCCF80E1809369
:10FA3000C6000895E0910401F0910501099508952B
:10FA400028E833E140E951E0FA013197F1F721501C
:10FA50003040D1F740E951E08823A1F0289A28EE00
:10FA600033E0FA013197F1F721503040D1F728986F
:10FA700020E233E0FA013197F1F721503040D1F71D
:10FA8000815061F708953F924F925F926F927F92FB
:10FA90008F929F92AF92BF92CF92DF92EF92FF929E
:10FAA0000F931F93CF93DF9394B714BE80916000A0
:10FAB0008861809360001092600091FFEAC189E143
:10FAC0008093C4001092C50088E18093C10086E055
:10FAD0008093C2005098589A209A84E00E94207D1A
:10FAE00083E00E94207D10E034E1F32E2EE1E22E2F
:10FAF00096E9D92E8AE0C82E00E1B02EAA24A3945C
:10FB0000B1E49B2EA6E58A2EF2E57F2EE0E26E2E72
:10FB100079E4572E63E5462E50E5352E0E94807C11
:10FB20008033B1F1112309F4A1C08133E1F18034B4
:10FB300009F475C0813409F47CC0823409F490C0A2
:10FB4000853409F486C0803519F1823509F1813593
:10FB500009F41CC2853509F432C1863509F400C1A7
:10FB6000843609F496C0843709F434C1853709F422
:10FB700004C1863709F468C0809103018F5F8093C8
:10FB80000301853049F011E00E94807C803351F6FA
:10FB90000E94FF7C11E0F8CFE0910401F091050193
:10FBA000099511E0F1CF0E94807C803229F7809185
:10FBB000C00085FFFCCFF092C6008091C00085FF99
:10FBC000FCCF9092C6008091C00085FFFCCF809250
:10FBD000C6008091C00085FFFCCF7092C600809166
:10FBE000C00085FFFCCF6092C6008091C00085FFF9
:10FBF000FCCF5092C6008091C00085FFFCCF4092A0
:10FC0000C6008091C00085FFFCCF3092C600809175
:10FC1000C00085FFFCCFB092C60011E0B5CF0E94B6
:10FC2000807C863808F4B4CF0E94807C0E94FF7CE0
:10FC3000B1CF0E94807C803839F1813801F182385F
:10FC400009F42DC18839B1F080E00E94D37C11E025
:10FC50009BCF85E00E94C97C0E94FF7C11E094CF7D
:10FC600084E10E94C97C0E94FF7C94CF88E080934D
:10FC70006000FFCF83E00E94D37C11E085CF81E05C
:10FC80000E94D37C11E080CF82E00E94D37C11E0FF
:10FC90007BCF0E94807C809309020E94807C8093AD
:10FCA000080280910C028E7F80930C020E94807C5F
:10FCB000853409F4F9C08091080290910902892BDA
:10FCC00089F000E010E00E94807CF801E85FFE4FC0
:10FCD00080830F5F1F4F80910802909109020817DF
:10FCE000190788F30E94807C803209F045CF80910B
:10FCF0000C0280FFDFC02091060130910701220F26
:10FD0000331F309307012093060160910802709120
:10FD1000090261157105C9F0E8E0F1E0A901DB0114
:10FD2000AE0FBF1FF999FECF52BD41BD819180BD7D
:10FD3000FA9AF99A4F5F5F4FEA17FB0799F7260F78
:10FD4000371F30930701209306018091C00085FF83
:10FD5000FCCFF092C6008091C00085FFFCCF5BCF46
:10FD60000E94807C803309F417C183E00E94C97C23
:10FD700080E00E94D37C11E007CF0E94807C80321B
:10FD800009F0FACE8091C00085FFFCCFF092C6004A
:10FD90008091C00085FFFCCFE092C6008091C0003A
:10FDA00085FFFCCFD092C6008091C00085FFFCCFBC
:10FDB000C092C6008091C00085FFFCCF2CCF0E946E
:10FDC000807C809306010E94807C809307010E94C2
:10FDD000FF7CE0CE0E94807C809309020E94807CA0
:10FDE000809308028091060190910701880F991F66
:10FDF00090930701809306010E94807C853409F46A
:10FE000042C080910C028E7F80930C020E94807C05
:10FE1000803209F0B8CE8091C00085FFFCCFF0920F
:10FE2000C60000910802109109020115110509F49C
:10FE3000D2C080910C02B82FB170A82FA695A170E6
:10FE4000E0910601F09107019F012F5F3F4FB9013B
:10FE500040E050E0BB2309F0AFC0AA2339F49491ED
:10FE60008091C00085FFFCCF9093C6004F5F5F4F2D
:10FE7000CB010196F9014017510708F0A8C0BC0159
:10FE80002F5F3F4FE7CF80910C02816080930C027F
:10FE9000BDCFE0910401F0910501099510CE80E1FC
:10FEA0000E94D37C11E070CE80910C02816080931F
:10FEB0000C0201CF809107018823880F880B8A21CB
:10FEC00080930B028091060190910701880F991F82
:10FED00090930701809306018091080280FF09C07A
:10FEE00080910802909109020196909309028093F3
:10FEF0000802F894F999FECF1127E0910601F091DC
:10FF00000701C8E0D1E08091080290910902103009
:10FF100091F40091570001700130D9F303E0009390
:10FF20005700E8950091570001700130D9F301E1C5
:10FF300000935700E89509901990009157000170BF
:10FF40000130D9F301E000935700E895139510387C
:10FF500098F011270091570001700130D9F305E0A6
:10FF600000935700E8950091570001700130D9F3D4
:10FF700001E100935700E8953296029709F0C7CF48
:10FF8000103011F00296E5CF1124DFCE0E94FF7CE5
:10FF900088E080936000FFCF0E94807C0E94807C7C
:10FFA000182F0E94807C112301F11130C9F08AE0E2
:10FFB0000E94D37C11E0E8CDF999FECFF2BDE1BDFE
:10FFC000F89A90B58091C00085FFFCCF4DCF70931B
:10FFD0000701609306018091C00085FFFCCF1BCE16
:10FFE00086E90E94D37C11E0CFCD8EE10E94D37CC4
:08FFF00011E0CACDF894FFCF27
:02FFF800800087
:040000030000F80001
:00000001FF
