:103800000C94341C0C94511C0C94511C0C94511CA1
:103810000C94511C0C94511C0C94511C0C94511C74
:103820000C94511C0C94511C0C94511C0C94511C64
:103830000C94511C0C94511C0C94511C0C94511C54
:103840000C94511C0C94511C0C94511C0C94511C44
:103850000C94511C0C94511C0C94511C0C94511C34
:103860000C94511C0C94511C11241FBECFEFD4E0BA
:10387000DEBFCDBF11E0A0E0B1E0E4EEFFE302C0A7
:1038800005900D92A230B107D9F712E0A2E0B1E0A5
:1038900001C01D92AD30B107E1F70E94391D0C94B3
:1038A000F01F0C94001C982F9595959595959595DE
:1038B000905D8F708A307CF0282F295A8091C0004B
:1038C00085FFFCCF9093C6008091C00085FFFCCFA0
:1038D0002093C6000895282F205DF0CF982F809167
:1038E000C00085FFFCCF9093C6000895EF92FF9231
:1038F0000F931F932D98EE24FF2487018091C00021
:1039000087FD17C00894E11CF11C011D111D81E405
:10391000E81682E4F8068FE0080780E0180770F3E5
:10392000E0910401F091050109958091C00087FFA5
:10393000E9CF2D9A8091C6001F910F91FF90EF90D3
:1039400008950E94761C982F8091C00085FFFCCFBF
:103950009093C60091362CF490330CF09053892F3D
:1039600008959755892F08951F930E94A11C182F21
:103970000E94A11C1295107F810F1F9108951F9323
:10398000182F882321F00E94761C1150E1F71F9117
:1039900008951F93182F0E94761C803249F0809161
:1039A00003018F5F809303018530C1F01F9108955B
:1039B0008091C00085FFFCCF84E18093C600809198
:1039C000C00085FFFCCF1093C6008091C00085FF2A
:1039D000FCCF80E18093C6001F910895E09104011F
:1039E000F091050109951F9108950E94761C80327F
:1039F00041F0809103018F5F80930301853081F056
:103A000008958091C00085FFFCCF84E18093C600BB
:103A10008091C00085FFFCCF80E18093C6000895AF
:103A2000E0910401F09105010995089528E833E13A
:103A300040E951E0FA013197F1F721503040D1F7D8
:103A400040E951E08823A1F02D9A28EE33E0FA01F5
:103A50003197F1F721503040D1F72D9820E233E033
:103A6000FA013197F1F721503040D1F7815061F7D9
:103A700008953F924F925F926F927F928F929F92A2
:103A8000AF92BF92CF92DF92EF92FF920F931F936C
:103A9000CF93DF9394B714BE8091600088618093C8
:103AA00060001092600091FFEAC183E38093C4003C
:103AB0001092C50088E18093C10086E08093C20027
:103AC0005098589A259A84E00E94161D83E00E941F
:103AD000161D10E034E1F32E2EE1E22E94E9D92EEA
:103AE00086E0C82E00E1B02EAA24A394B1E49B2E58
:103AF000A6E58A2EF2E57F2EE0E26E2E79E4572EBF
:103B000063E5462E50E5352E0E94761C8033B1F1D8
:103B1000112309F4A1C08133E1F1803409F475C0A7
:103B2000813409F47CC0823409F490C0853409F4EE
:103B300086C0803519F1823509F1813509F41CC23E
:103B4000853509F432C1863509F400C1843609F49B
:103B500096C0843709F434C1853709F404C1863727
:103B600009F468C0809103018F5F80930301853061
:103B700049F011E00E94761C803351F60E94F51C3A
:103B800011E0F8CFE0910401F0910501099511E0F1
:103B9000F1CF0E94761C803229F78091C00085FF0A
:103BA000FCCFF092C6008091C00085FFFCCF9092C0
:103BB000C6008091C00085FFFCCF8092C600809136
:103BC000C00085FFFCCF7092C6008091C00085FFC9
:103BD000FCCF6092C6008091C00085FFFCCF509260
:103BE000C6008091C00085FFFCCF4092C600809146
:103BF000C00085FFFCCF3092C6008091C00085FFD9
:103C0000FCCFB092C60011E0B5CF0E94761C86387A
:103C100008F4B4CF0E94761C0E94F51CB1CF0E941C
:103C2000761C803839F1813801F1823809F42DC1D0
:103C30008839B1F080E00E94C91C11E09BCF85E07B
:103C40000E94BF1C0E94F51C11E094CF84E10E94E9
:103C5000BF1C0E94F51C94CF88E080936000FFCFCA
:103C600083E00E94C91C11E085CF81E00E94C91C3D
:103C700011E080CF82E00E94C91C11E07BCF0E943E
:103C8000761C809309020E94761C80930802809122
:103C90000C028E7F80930C020E94761C853409F4FE
:103CA000F9C08091080290910902892B89F000E007
:103CB00010E00E94761CF801E85FFE4F80830F5FE2
:103CC0001F4F80910802909109020817190788F385
:103CD0000E94761C803209F045CF80910C0280FF53
:103CE000DFC02091060130910701220F331F30936E
:103CF0000701209306016091080270910902611585
:103D00007105C9F0E8E0F1E0A901DB01AE0FBF1FCA
:103D1000F999FECF52BD41BD819180BDFA9AF99AC1
:103D20004F5F5F4FEA17FB0799F7260F371F309356
:103D30000701209306018091C00085FFFCCFF0921F
:103D4000C6008091C00085FFFCCF5BCF0E94761C2F
:103D5000803309F417C183E00E94BF1C80E00E94F9
:103D6000C91C11E007CF0E94761C803209F0FACE00
:103D70008091C00085FFFCCFF092C6008091C0000A
:103D800085FFFCCFE092C6008091C00085FFFCCF8C
:103D9000D092C6008091C00085FFFCCFC092C600C3
:103DA0008091C00085FFFCCF2CCF0E94761C8093B1
:103DB00006010E94761C809307010E94F51CE0CE4C
:103DC0000E94761C809309020E94761C8093080250
:103DD0008091060190910701880F991F9093070128
:103DE000809306010E94761C853409F442C08091BC
:103DF0000C028E7F80930C020E94761C803209F0A8
:103E0000B8CE8091C00085FFFCCFF092C600009133
:103E10000802109109020115110509F4D2C0809120
:103E20000C02B82FB170A82FA695A170E0910601E1
:103E3000F09107019F012F5F3F4FB90140E050E033
:103E4000BB2309F0AFC0AA2339F494918091C0003C
:103E500085FFFCCF9093C6004F5F5F4FCB0101966B
:103E6000F9014017510708F0A8C0BC012F5F3F4F70
:103E7000E7CF80910C02816080930C02BDCFE0916E
:103E80000401F0910501099510CE80E10E94C91C42
:103E900011E070CE80910C02816080930C0201CF02
:103EA000809107018823880F880B8A2180930B0259
:103EB0008091060190910701880F991F9093070147
:103EC000809306018091080280FF09C0809108025A
:103ED0009091090201969093090280930802F89448
:103EE000F999FECF1127E0910601F0910701C8E092
:103EF000D1E08091080290910902103091F4009174
:103F0000570001700130D9F303E000935700E895A2
:103F10000091570001700130D9F301E1009357007F
:103F2000E895099019900091570001700130D9F37C
:103F300001E000935700E8951395103498F011278D
:103F40000091570001700130D9F305E0009357004C
:103F5000E8950091570001700130D9F301E1009319
:103F60005700E8953296029709F0C7CF103011F04C
:103F70000296E5CF1124DFCE0E94F51C88E08093E5
:103F80006000FFCF0E94761C0E94761C182F0E94B2
:103F9000761C112301F11130C9F086E00E94C91C82
:103FA00011E0E8CDF999FECFF2BDE1BDF89A90B5E8
:103FB0008091C00085FFFCCF4DCF709307016093C7
:103FC00006018091C00085FFFCCF1BCE84E90E94D2
:103FD000C91C11E0CFCD8EE10E94C91C11E0CACDF1
:043FE000F894FFCF83
:023FE40080005B
:0400000300003800C1
:00000001FF
